:020000040800F2
:1000000000500020E18500083D8400083F8400087E
:100010004184000843840008458400080000000073
:1000200000000000000000000000000047840008FD
:1000300049840008000000004B8400084D8400083B
:1000400029860008298600082986000829860008D4
:1000500029860008298600082986000829860008C4
:1000600029860008298600082986000829860008B4
:100070002986000829860008558400086584000840
:100080002986000829860008298600082986000894
:100090002986000829860008298600082986000884
:1000A0002986000829860008298600082986000874
:1000B0002986000829860008298600082986000864
:1000C0002986000829860008298600082986000854
:1000D000298600087584000885840008C984000802
:1000E00029860008298600082986000800000000EB
:1000F0000000000000000000000000000000000000
:0C01000000000000000000005FF808F1A3
:1001100010B5054C237833B9044B13B10448AFF341
:1001200000800123237010BD100500200000000096
:1001300010A4000808B5034B1BB103490348AFF3F3
:10014000008008BD000000001405002010A4000875
:1001500010F8012B11F8013B012A28BF9A42F7D071
:10016000D01A7047034613F8012B002AFBD1181A46
:100170000138704781F0004102E000BF83F0004386
:1001800030B54FEA41044FEA430594EA050F08BF32
:1001900090EA020F1FBF54EA000C55EA020C7FEAF6
:1001A000645C7FEA655C00F0E2804FEA5454D4EB73
:1001B0005555B8BF6D420CDD2C4480EA020281EA3D
:1001C000030382EA000083EA010180EA020281EA75
:1001D0000303362D88BF30BD11F0004F4FEA0131C7
:1001E0004FF4801C4CEA113102D0404261EB4101D6
:1001F00013F0004F4FEA03334CEA133302D052425C
:1002000063EB430394EA050F00F0A780A4F1010417
:10021000D5F1200E0DDB02FA0EFC22FA05F2801851
:1002200041F1000103FA0EF2801843FA05F3594137
:100230000EE0A5F120050EF1200E012A03FA0EFCB6
:1002400028BF4CF0020C43FA05F3C01851EBE371E0
:1002500001F0004507D54FF0000EDCF1000C7EEBFD
:1002600000006EEB0101B1F5801F1BD3B1F5001F3B
:100270000CD349085FEA30004FEA3C0C04F101045A
:100280004FEA445212F5800F80F09A80BCF1004F83
:1002900008BF5FEA500C50F1000041EB045141EA05
:1002A000050130BD5FEA4C0C404141EB010111F406
:1002B000801FA4F10104E9D191F0000F04BF0146B1
:1002C0000020B1FA81F308BF2033A3F10B03B3F18F
:1002D00020020CDA0C3208DD02F1140CC2F10C021F
:1002E00001FA0CF021FA02F10CE002F11402D8BF7D
:1002F000C2F1200C01FA02F120FA0CFCDCBF41EA49
:100300000C019040E41AA2BF01EB0451294330BD17
:100310006FEA04041F3C1CDA0C340EDC04F11404F4
:10032000C4F1200220FA04F001FA02F340EA0300CB
:1003300021FA04F345EA030130BDC4F10C04C4F111
:10034000200220FA02F001FA04F340EA03002946F1
:1003500030BD21FA04F0294630BD94F0000F83F43B
:10036000801306BF81F480110134013D4EE77FEA1E
:10037000645C18BF7FEA655C29D094EA050F08BF6A
:1003800090EA020F05D054EA000C04BF194610464B
:1003900030BD91EA030F1EBF0021002030BD5FEA8F
:1003A000545C05D14000494128BF41F0004130BDB7
:1003B00014F580043CBF01F5801130BD01F000450B
:1003C00045F0FE4141F470014FF0000030BD7FEA7E
:1003D000645C1ABF194610467FEA655C1CBF0B4679
:1003E000024650EA013406BF52EA033591EA030F90
:1003F00041F4002130BD00BF90F0000F04BF002188
:10040000704730B54FF4806404F132044FF00005BA
:100410004FF0000150E700BF90F0000F04BF002133
:10042000704730B54FF4806404F1320410F0004599
:1004300048BF40424FF000013EE700BF42004FEA94
:10044000E2014FEA31014FEA02701FBF12F07F4311
:1004500093F07F4F81F06051704792F0000F14BF0E
:1004600093F07F4F704730B54FF4607401F0004552
:1004700021F0004120E700BF50EA010208BF7047A9
:1004800030B54FF000050AE050EA010208BF70479E
:1004900030B511F0004502D5404261EB41014FF407
:1004A000806404F132045FEA915C3FF4DCAE4FF00B
:1004B00003025FEADC0C18BF03325FEADC0C18BFF2
:1004C000033202EBDC02C2F1200300FA03FC20FA43
:1004D00002F001FA03FE40EA0E0021FA02F1144490
:1004E000C1E600BF70B54FF0FF0C4CF4E06C1CEAA5
:1004F00011541DBF1CEA135594EA0C0F95EA0C0F1A
:1005000000F0DEF82C4481EA030621EA4C5123EA8C
:100510004C5350EA013518BF52EA033541F48011BB
:1005200043F4801338D0A0FB02CE4FF00005E1FB6E
:1005300002E506F00042E0FB03E54FF00006E1FBB8
:1005400003569CF0000F18BF4EF0010EA4F1FF04FB
:10055000B6F5007F64F5407404D25FEA4E0E6D413B
:1005600046EB060642EAC62141EA55514FEAC5204C
:1005700040EA5E504FEACE2EB4F1FD0C88BFBCF5C8
:10058000E06F1ED8BEF1004F08BF5FEA500E50F179
:10059000000041EB045170BD06F0004646EA01013F
:1005A00040EA020081EA0301B4EB5C04C2BFD4EB71
:1005B0000C0541EA045170BD41F480114FF0000E6A
:1005C000013C00F3AB8014F1360FDEBF002001F0D8
:1005D000004170BDC4F10004203C35DA0C341BDC52
:1005E00004F11404C4F1200500FA05F320FA04F024
:1005F00001FA05F240EA020001F0004221F0004158
:1006000010EBD37021FA04F642EB06015EEA430ECA
:1006100008BF20EAD37070BDC4F10C04C4F12005FA
:1006200000FA04F320FA05F001FA04F240EA0200AD
:1006300001F0004110EBD37041F100015EEA430E7E
:1006400008BF20EAD37070BDC4F1200500FA05F29E
:100650004EEA020E20FA04F301FA05F243EA02031D
:1006600021FA04F001F0004121FA04F220EA02002C
:1006700000EBD3705EEA430E08BF20EAD37070BD72
:1006800094F0000F0FD101F00046400041EB010152
:1006900011F4801F08BF013CF7D041EA060195F034
:1006A000000F18BF704703F00046520043EB0303EE
:1006B00013F4801F08BF013DF7D043EA06037047DB
:1006C00094EA0C0F0CEA135518BF95EA0C0F0CD0E6
:1006D00050EA410618BF52EA4306D1D181EA03012C
:1006E00001F000414FF0000070BD50EA410606BF26
:1006F0001046194652EA430619D094EA0C0F02D16B
:1007000050EA013613D195EA0C0F05D152EA0336AF
:100710001CBF104619460AD181EA030101F00041CD
:1007200041F0FE4141F470014FF0000070BD41F016
:10073000FE4141F4780170BD70B54FF0FF0C4CF4F0
:10074000E06C1CEA11541DBF1CEA135594EA0C0F0F
:1007500095EA0C0F00F0A7F8A4EB050481EA030E5C
:1007600052EA03354FEA013100F088804FEA033343
:100770004FF0805545EA131343EA12634FEA022211
:1007800045EA111545EA10654FEA00260EF00041D2
:100790009D4208BF964244F1FD0404F5407402D224
:1007A0005B084FEA3202B61A65EB03055B084FEAB5
:1007B00032024FF480104FF4002CB6EB020E75EBB2
:1007C000030E22BFB61A754640EA0C005B084FEADA
:1007D0003202B6EB020E75EB030E22BFB61A754657
:1007E00040EA5C005B084FEA3202B6EB020E75EBA2
:1007F000030E22BFB61A754640EA9C005B084FEA1A
:100800003202B6EB020E75EB030E22BFB61A754626
:1008100040EADC0055EA060E18D04FEA051545EA15
:1008200016754FEA06164FEAC30343EA52734FEABE
:10083000C2025FEA1C1CC0D111F4801F0BD141EA37
:1008400000014FF000004FF0004CB6E711F4801F9C
:1008500004BF01430020B4F1FD0C88BFBCF5E06F7C
:100860003FF6AFAEB5EB030C04BFB6EB020C5FEA8C
:10087000500C50F1000041EB045170BD0EF0004EE1
:100880004EEA113114EB5C04C2BFD4EB0C0541EA13
:10089000045170BD41F480114FF0000E013C90E610
:1008A00045EA060E8DE60CEA135594EA0C0F08BFD4
:1008B00095EA0C0F3FF43BAF94EA0C0F0AD150EAD3
:1008C00001347FF434AF95EA0C0F7FF425AF104666
:1008D00019462CE795EA0C0F06D152EA03353FF48E
:1008E000FDAE1046194622E750EA410618BF52EA0B
:1008F00043067FF4C5AE50EA41047FF40DAF52EADF
:1009000043057FF4EBAE12E74FF0FF3C06E000BF7B
:100910004FF0010C02E000BF4FF0010C4DF804CD88
:100920004FEA410C7FEA6C5C4FEA430C18BF7FEA48
:100930006C5C1BD001B050EA410C0CBF52EA430C76
:1009400091EA030F02BF90EA020F0020704710F1F6
:10095000000F91EA030F58BF994208BF90422CBF85
:10096000D8176FEAE37040F0010070474FEA410C7E
:100970007FEA6C5C02D150EA013C07D14FEA430C9C
:100980007FEA6C5CD6D152EA033CD3D05DF8040B0D
:10099000704700BF8446104662468C46194663463F
:1009A00000E000BF01B5FFF7B7FF002848BF10F116
:1009B000000F01BD4DF808EDFFF7F4FF0CBF01205B
:1009C00000205DF808FB00BF4DF808EDFFF7EAFFD7
:1009D00034BF012000205DF808FB00BF4DF808ED92
:1009E000FFF7E0FF94BF012000205DF808FB00BF87
:1009F0004DF808EDFFF7CEFF94BF012000205DF811
:100A000008FB00BF4DF808EDFFF7C4FF34BF01201D
:100A100000205DF808FB00BF4FEA410212F500120A
:100A200015D211D56FF47873B3EB625212D94FEA35
:100A3000C12343F0004343EA505311F0004F23FA1F
:100A400002F018BF404270474FF00000704750EA74
:100A5000013005D111F0004008BF6FF00040704731
:100A60004FF00000704700BF4FEA4102B2F1E0438F
:100A700024BFB3F5001CDCF1FE5C0DD901F0004C85
:100A80004FEAC0024CEA5070B2F1004F40EB8300D5
:100A900008BF20F00100704711F0804F21D113F101
:100AA0003872BCBF01F00040704741F480114FEA3A
:100AB0005252C2F11802C2F1200C10FA0CF320FAC3
:100AC00002F018BF40F001004FEAC1234FEAD323E0
:100AD00003FA0CFC40EA0C0023FA02F34FEA43034A
:100AE000CCE77FEA625307D150EA01331EBF4FF0D3
:100AF000FE4040F44000704701F0004040F0FE40EE
:100B000040F40000704700BF4FF0FF3C06E000BF1C
:100B10004FF0010C02E000BF4FF0010C4DF804CD86
:100B20004FEA40024FEA41037FEA226C18BF7FEA96
:100B3000236C11D001B052EA530C18BF90EA010F98
:100B400058BFB2EB030088BFC81738BF6FEAE17027
:100B500018BF40F0010070477FEA226C02D15FEAC3
:100B6000402C05D17FEA236CE4D15FEA412CE1D02F
:100B70005DF8040B704700BF844608466146FFE7F6
:100B80000FB5FFF7C9FF002848BF10F1000F0FBDD8
:100B90004DF808EDFFF7F4FF0CBF012000205DF8D1
:100BA00008FB00BF4DF808EDFFF7EAFF34BF012056
:100BB00000205DF808FB00BF4DF808EDFFF7E0FFEF
:100BC00094BF012000205DF808FB00BF4DF808ED40
:100BD000FFF7D2FF94BF012000205DF808FB00BFA3
:100BE0004DF808EDFFF7C8FF34BF012000205DF885
:100BF00008FB00BF03685A004CBF43F0004323F0DA
:100C000000431844704700BF61B32DE9F84F01F16C
:100C1000FF3A90460646D146002707EB090404EB4D
:100C2000D4746410E50071190846FFF7E3FFA2458C
:100C3000834605F10800304409D0FFF7DBFFC345C8
:100C400000F1FF3005D8404509D2671CE5E7C345F0
:100C500005D9A74202D004F1FF39DEE7002108469A
:100C6000BDE8F88F08467047012807D0022807D052
:100C7000044B00280CBF18460020704702487047FC
:100C800002487047791300087D130008811300089B
:100C900030B5254B83B004468D1E73B301A9284699
:100CA000AFF3008018B301992A46FFF7ADFF014664
:100CB000E8B1FFF79FFF4B68A064012B11D0002B18
:100CC00022DB081DFFF796FF0023E064236503681D
:100CD000002B1EDBFFF78EFF00232061184603B0B8
:100CE00030BD052300221846226103B030BD092320
:100CF00000221846226103B030BD0C4B0C49184647
:100D0000C91AC9100191CFE70123081DE0642365CA
:100D1000DDE7C3F30360FFF7A7FF0028206114BFDE
:100D200000230923DAE700BF0000000050B00008EC
:100D3000D8B10008036810B5DA07044606D49B074B
:100D400000F1480009D500F057FC2368590709D580
:100D50001A070ED5DB0613D510BD00F045FC23683D
:100D60005907F5D404F1D00000F04EFC23681A07AF
:100D7000F0D404F5A87000F04FFC2368DB06EBD438
:100D800004F5E870BDE8104000F08ABC036803B1C8
:100D900003441846704700BF09207047704700BFE2
:100DA00070B504460D4608E02A6C2369626121464D
:100DB0002A4601209847082808D1296C2046FFF7C9
:100DC00067FF06460028EFD009F0D6FA0728FBD1C6
:100DD0003046296CFFF7E2FF281D00F0F9FB00BF49
:100DE0002DE9F04705460027ADF5727D03AC0E1DD9
:100DF00092460FCE0FC40FCE0FC40FCE0FC496E88D
:100E00000F00D5F80C80D5F8189084E80F0002ACDC
:100E10002846216C2760FFF73BFFBAF1000F074619
:100E200014BF0A2609267FB1A36B46F010018DE896
:100E300010022A46636401202B46C04778BB38461F
:100E40000DF5727DBDE8F087236C4FF4F0726B6195
:100E500021467AA808F0A8FF2B697AAA29463046CD
:100E60009847889B82468DE81002314663642A4683
:100E70002B460120C04790B94FF4F0727AA9204662
:100E800008F092FFBAF1080F06D1216C2846FFF74F
:100E9000FFFE09260746C6E7BAF1070F05D0092766
:100EA00038460DF5727DBDE8F0873846216CFFF7B6
:100EB00075FF03A800F08CFB406C7047F0B54FF055
:100EC000FF3ECB6BF9B00B640E1D01AD0F4604461F
:100ED0000FCE0FC50FCE0FC50FCE0FC596E80F0072
:100EE00085E80F00CDF800E006E023696A46214658
:100EF00098470828054608D110992046FFF7C8FEF4
:100F00000028F2D0092079B0F0BD6846FFF712FF43
:100F1000062DF7D139462046FFF742FF30B4DD6B8E
:100F2000C160826119461D64002230BC58E700BFD1
:100F300070B54369C6680B6426B10122FFF750FF04
:100F400009F01AFA03690A4604460D4601460220D2
:100F50009847072807D0082803D129462046FFF7DD
:100F60001FFF09F009FA3046296CFFF717FF281D0B
:100F700000F02EFBC2682AB110B4CC6B00220C64C6
:100F800010BC2DE79AE700BF704700BF836813B11C
:100F9000014601201847704700B5042907D8DFE84B
:100FA00001F00309060909000BB90F2A05D902202F
:100FB0005DF804FB01205DF804FB00EB820252683F
:100FC0001846019B1A605DF804FB00BF002310B5B2
:100FD00084B003AC0A4600941946FFF7DDFF03987E
:100FE00004B010BD00B5042907D8DFE801F00309FB
:100FF000060909000BB90F2A05D902205DF804FB88
:1010000001205DF804FB019900EB82020968184693
:1010100051605DF804FB00BF002310B584B004AC40
:1010200044F8042D00940A461946FFF7DBFF04B08C
:1010300010BD00BFF0B54FF0FF3ED36BADF50F7D97
:101040001364151D17AC07460E460FCD0FC40FCD08
:101050000FC40FCD0FC495E80F0084E80F00CDF842
:1010600058E012E00C2116A86A46FFF7D5FF31467A
:1010700016A8B84778B9049B16AA6946082098476D
:101080000528044608D0092805D026996846FFF7A8
:10109000FFFD0028E6D0092416A8FFF74BFE2046E6
:1010A0000DF50F7DF0BD00BF2DE9F04FCC6C9146E2
:1010B00022688BB004340D460792089400F0030BAD
:1010C0001E46002B60D10323120207928DF8256083
:1010D0008DF824302B6DBBF1020F08BFAC6B13F001
:1010E000010340D1019300F008030393D4F800807A
:1010F000B8F1000F39D0022E43D0B4F800806788D1
:101100000434AB6C27F0010A0F2148469A44FFF7DC
:101110005DFF824533D828F001039A4450452CBF27
:10112000002001207F0007F0020708F0010847EACD
:101130000807012F3ED035D3022F1CD1236823F09E
:1011400000420292BBF1000F76D128B10399002929
:101150007ED0002A00F0A680002B77DB029B0133B3
:1011600004EB8304C2E700230193022E3EDDFFF768
:1011700013FE002840D009200BB0BDE8F08F0020FE
:10118000D0E767680834BCE7022BA3DC0221130C0C
:101190008DF825301204DBB204EB830407928DF83E
:1011A000241097E7BBF1000F02D0002840F0BD806B
:1011B00004349BE7BBF1000F25D1A8B194E80C00E3
:1011C000991C4FEAD272D6D005F15801013306912D
:1011D00000F0A380201DFFF7D9FD06AB014628468D
:1011E000AFF30080002877D108347FE707A948468D
:1011F00000F0F0FA0028BED1019B002B5CD1082042
:101200000BB0BDE8F08F0D2148462F6AFFF7DEFED8
:101210008742E9D1AB6A9C42E6D12046FFF7EAFC5F
:101220000F2102464846FFF7F7FE48462A460021AE
:10123000FFF7F2FE07209FE70D2148462F6AFFF7D0
:10124000C5FE874258D02368002B87DA043485E72F
:10125000029B3BB305F15803271DCDF810B0DDF814
:101260000C80A346DDF808A01C46059602E0B245B6
:10127000B04616D038460694FFF788FD06AB014607
:1012800000222846AFF3008008F101060437002849
:10129000EDD0029B5C464345DDF810B0059ED2D1EF
:1012A00000E05C4648460D21FFF790FE069B286251
:1012B000AC626B6206205FE70F214846FFF786FEAF
:1012C0000E2102464846FFF7A7FE4846294A0F214D
:1012D000FFF7A2FE07204FE707460D214846FFF71C
:1012E00075FE022F28621DD12B46069A43F82C2F3B
:1012F0006B62AC6206203FE7AB6A9C42A3D104223A
:1013000000270299A318A962EF622A636B6323681E
:10131000BB421DDB0123019320E748460D21FFF767
:1013200055FE2862069B6B62E3E72046FFF762FCEE
:1013300004340646AC632846AFF3008000283FF42F
:101340001AAF484632460F21FFF766FE072013E723
:101350000846013004EB8000FFF74CFC0F210246E9
:101360004846FFF759FE48462A463946FFF754FEDD
:10137000072001E700000000002395E6012393E623
:10138000022391E6F0B50446C5B004290DD8DFE884
:1013900001F055030C310F00012B4FEA124695B2B4
:1013A00064D17219102A40F29D80022045B0F0BD30
:1013B000002BFAD1102AF8D82368D80600F1C8808B
:1013C00022AE30460192012500F074F90023A06B93
:1013D000019A05FA03F1114203D00168043046F87E
:1013E00023100133042BF4D1A063304600F058F9E8
:1013F0000020DBE7032BD8D1150C97B2EB19102B8B
:10140000D3D823681E0700F1B78022AE304600F023
:1014100025F9ED00A06B5FB1043D0346711900EBA7
:10142000C70053F8042B834241F8042FF9D1184622
:10143000A063304600F0F0F80020B7E7002BB4D1ED
:101440000127A56B96B2201D07FA03F1314203F183
:10145000010302D0296804350160102B00F104005B
:10146000F2D112F400503BD1A5639FE7052B9CD12C
:101470007719202F99D80F2E66D92F46002D3AD1F3
:101480002A460027002AA06B72DD00EBC20201464B
:1014900044A800EBC6008C3851F8045B914240F838
:1014A000045FF9D1084697B1102E324638BF10229A
:1014B00044A901EBC202A2F5C4727900043A00EB20
:1014C000810150F8045B884242F8045FF9D1012B96
:1014D00048D00F2EA16333D917B102A800F094F8B9
:1014E000002063E70F2E3FF660AF00272268D10788
:1014F00017D4002F60D02268510745D4012B4DD05E
:101500000F2E06D822A8019300F07AF8019B002F35
:10151000B6D002A8019300F07BF8019BC6F110023F
:10152000B0E722F00101052B2160019320463BD05A
:1015300022F0030240F8482B00F05AF8019BD8E74C
:1015400022A800F059F8C7E7102FCED9103FCDE7F9
:1015500023F01003236004F5E870019200F0AAF86C
:10156000019A2DE70431A16322A800F03DF8B7E706
:10157000002F99D10146AAE723F00803236004F560
:10158000A87000F06BF840E7204622F0040240F813
:10159000D02B019300F03CF8019BAFE722A8019308
:1015A00000F026F8019BB9E741F0020140F8481B22
:1015B00000F026F8019B9CE7012B03D00F2E3FF68D
:1015C0005FAF9FE722A8019300F012F8019B57E755
:1015D00000F1340191E838009C46A6464CF8045DC1
:1015E00090E8FF0FE54600BD90EC210B704700BF6F
:1015F00080EC210B704700BF90EC200B704700BFC0
:1016000080EC200B704700BFD0EC200B704700BF70
:10161000C0EC200B704700BFF0EC0201F0EC0211AF
:10162000F0EC0221F0EC0231F0EC0241F0EC02515E
:10163000F0EC0261F0EC0271F0EC0281F0EC02914E
:10164000F0EC02A1F0EC02B1F0EC02C1F0EC02D13E
:10165000F0EC02E1F0EC02F1704700BFE0EC0201B7
:10166000E0EC0211E0EC0221E0EC0231E0EC02419E
:10167000E0EC0251E0EC0261E0EC0271E0EC02818E
:10168000E0EC0291E0EC02A1E0EC02B1E0EC02C17E
:10169000E0EC02D1E0EC02E1E0EC02F1704700BFC7
:1016A000B0FC0181B0FC0191B0FC01A1B0FC01B122
:1016B000704700BFA0FC0181A0FC0191A0FC01A12A
:1016C000A0FC01B1704700BFEC4600B52DE9005009
:1016D0002DE9FF1F4FF000032DE90C0001A9FFF7D2
:1016E000EDFBDDF840E012B0704700BFEC4600B5FE
:1016F0002DE900502DE9FF1F4FF000032DE90C00EC
:1017000001A9FFF715FCDDF840E012B0704700BFFB
:10171000EC4600B52DE900502DE9FF1F4FF0000306
:101720002DE90C0001A9FFF725FCDDF840E012B01F
:10173000704700BFEC4600B52DE900502DE9FF1FB2
:101740004FF000032DE90C0001ABFFF7E7FBDDF8DC
:1017500040E012B0704700BFEC4600B52DE90050E4
:101760002DE9FF1F4FF000032DE90C0001AAFFF740
:1017700061FCDDF840E012B0704700BF027A1AB990
:10178000437A43B9B02070470368013A02721A02E3
:101790000260180E704703214268013B10B4437287
:1017A0001368141D01721A024460026010BC180E06
:1017B000704700BF002300B585B003AA0092194608
:1017C0000C22FFF7E9FB039805B05DF804FB00BFAE
:1017D000F0E700BF2DE9F04306460F464FF0000842
:1017E00085B03846FFF7CAFFB028044623D0050667
:1017F00027D400230DF10C09194685000D22CDF8E0
:1018000000903046FFF7C8FBEDB2039B600605F180
:1018100004054CBF5D1BED1800230D221946CDF8C1
:10182000009030460395FFF7DDFB3846FFF7A6FF33
:10183000B0280446DBD1B8F1000F00F094800020FE
:101840001CE000F0F003802B5CD0902B19D0A02B73
:101850002CD0B02B3ED0C02B6BD000F0F803D02B97
:101860000BD100F00702013242F4002205230121CE
:101870003046FFF787FD0028B3D0092005B0BDE84A
:10188000F08300F00D030D2BF7D0002303AD00F023
:101890000F02194600953046FFF77EFB00230095A6
:1018A00019460D223046FFF79DFB9AE7C3434FF4DC
:1018B0007F6203F007031A410023010702F47F62ED
:1018C00048BF42F4804219463046FFF75BFD0028CE
:1018D000D3D186E7B12857D0B22868D0B32800F01A
:1018E000958000F0FC03B42BC7D0012300F0070261
:1018F0001A4442F4002219463046FFF743FD0028FF
:10190000BBD16EE73846FFF739FF24020443B4F534
:10191000004FB2D000232401A2B219463046FFF78F
:1019200031FD0028A9D114F4004F18BF4FF0010871
:1019300057E7C6287DD0C72800F0868000F0F8035E
:10194000C02B00F09480C82800F09F80C92894D153
:101950003846FFF713FF020300F00F0002F4702275
:101960000130024382E703AC43460E224146009415
:101970003046FFF711FB0094304643460F224146A4
:10198000FFF730FB404679E73846FFF7F7FE0028BF
:101990003FF473AF10F0F0037FF46FAF02461946C7
:1019A0003046FFF7EFFC00287FF467AF19E700230C
:1019B0000DF10C090D221946CDF800903046FFF7C5
:1019C000EBFA3846FFF7DAFE02064FF002040CD5B8
:1019D000039B00F07F00A040034438460393FFF7C9
:1019E000CDFE030604F10704F2D40023039900F0AE
:1019F0007F02A24001F501718C18CDF800901946C4
:101A00000D2230460394FFF7EDFAEAE63846FFF779
:101A1000B5FE0123010300F00F0001F47021C2188C
:101A20000A4330461946FFF7ADFC00287FF425AF86
:101A3000D7E63846FFF7A2FE010300F00F000323AC
:101A400001F47021421CEBE73846FFF797FE0028AF
:101A50003FF413AF10F0F0037FF40FAF0246042100
:101A60003046FFF78FFC00287FF407AFB9E6032369
:101A700000F00F02013242F4202219463046FFF7EF
:101A800081FC00287FF4F9AEABE63846FFF776FE1E
:101A900000F0F00200F00F031032013343EA02328B
:101AA000E4E600BF30B503240D46C36C85B05A6828
:101AB0008DF80C40DC791202083301A92846019206
:101AC0008DF80D400293FFF785FE05B030BD00BFD5
:101AD00008B5FFF77DFE806C08BD00BF08B5FFF7B5
:101AE00077FEC06CC37900EB8300083008BD00BFEF
:101AF00008B508F041FC00BF08B5FFF7F9FF00BFCB
:101B000010B504460E4B18784FF47A73B3FBF0F31C
:101B10000C4A1068B0FBF3F000F08EF868B90F2C97
:101B200001D9012010BD002221464FF0FF3000F006
:101B300043F8054B1C60002010BD012010BD00BF04
:101B400000000020080000200400002008B5074A1B
:101B5000136843F010031360032000F01BF800200B
:101B6000FFF7CEFF06F05CFB002008BD002002401E
:101B7000034A1168034B1B780B441360704700BF86
:101B80007C2C002000000020014B1868704700BF2B
:101B90007C2C0020074AD36823F4E0631B041B0C51
:101BA000000200F4E060184340F0BF6040F40030F1
:101BB000D060704700ED00E030B4164BDB68C3F333
:101BC0000223C3F10704042C28BF04241D1D062D85
:101BD00017D9033B012505FA04F4013C2140994043
:101BE00005FA03F3013B1340194300280BDB0901FD
:101BF000C9B200F1604000F5614080F8001330BCCC
:101C000070470023E6E700F00F000901C9B2024B5C
:101C10001954F4E700ED00E014ED00E0002808DBC3
:101C2000420900F01F00012303FA00F0014B43F8C2
:101C30002200704700E100E00138B0F1807F0AD255
:101C4000064B5860F021064A82F823100020986065
:101C500007221A6070470120704700BF10E000E0C3
:101C600000ED00E070B4C56B066C0124B4406C60FC
:101C7000046863604368102B05D0036899600368AB
:101C8000DA6070BC704703689A600368D960F8E74F
:101C900060B310B403460068154A02441549A1FB1D
:101CA0000212120992001A64134ADA63022283F8BC
:101CB0002120016821F47F5121F030015A689C688D
:101CC0002243DC6822431C6922435C6922439C69ED
:101CD0002243DC6922430A43026000209863012208
:101CE00083F8212083F8200010BC70470120704742
:101CF000F8FFFDBFCDCCCCCC0000024038B590F849
:101D00002040012C32D0012480F8204090F821405E
:101D1000012C04D0002380F82030022038BD044676
:101D2000022084F821000020A0632568286820F0A4
:101D3000010028602046FFF795FFE36A5BB1226847
:101D4000136843F00E0313602268136843F0010325
:101D50001360002038BD2268136823F00403136069
:101D60002268136843F00A031360EDE7022038BDD0
:101D700008B590F82130022B03D00423836301209F
:101D800008BD0268136823F00E031360026813682D
:101D900023F0010313600368194A934214D01432EC
:101DA00093421FD0143293421ED0143293421ED05D
:101DB000143293421ED01432934202D04FF08072FC
:101DC00003E04FF4801200E001220E4B5A60012321
:101DD00080F82130002380F82030436B6BB19847A6
:101DE000002008BD1022F0E74FF48072EDE74FF4B9
:101DF0008052EAE74FF48032E7E7002008BD00BFD9
:101E0000080002400000024038B5C36B1A6804683D
:101E10002568016C04238B401A4236D015F0040F5C
:101E200033D0236813F0200F03D1236823F0040379
:101E300023600368434A934214D01432934219D06A
:101E40001432934218D01432934218D01432934271
:101E500018D01432934202D04FF0806203E04FF466
:101E6000800200E00422384B5A60C36A002B67D01E
:101E7000984738BD4022F6E74FF48062F3E74FF40D
:101E80008042F0E74FF48022EDE702238B401A42B4
:101E90003BD015F0020F38D0236813F0200F06D185
:101EA000236823F00A032360012380F821300368AC
:101EB000244A934214D0143293421BD014329342DA
:101EC0001AD0143293421AD0143293421AD01432D8
:101ED000934202D04FF0007203E04FF4001200E092
:101EE0000222194B5A60002380F82030836A3BB3EA
:101EF000984738BD2022F4E74FF40072F1E74FF421
:101F00000052EEE74FF40032EBE7082303FA01F149
:101F10000A4215D015F0080F12D0236823F00E03E3
:101F20002360C16B026C012303FA02F24A608363EF
:101F300080F82130002380F82030036B03B19847EC
:101F400038BD00BF0800024000000240F0B583B079
:101F50000026344671E0002D00F0A280012D00D152
:101F6000CE68FF2B00F2B0808646FF2B00F2AF80D8
:101F7000A500DEF800200F27AF4022EA070206FA8C
:101F800005F52A43CEF800204A6812F0805F53D04E
:101F9000644A956945F001059561926902F0010274
:101FA0000192019AA508AF1C5F4A52F8272004F05D
:101FB0000307BF004FF00F0E0EFA07FE22EA0E02D3
:101FC000DFF874E1704500F089800EF5806E704591
:101FD00000F087800EF5806E704500F085800EF56C
:101FE000806E704577D04FF0040E0EFA07F73A4333
:101FF00002354D4F47F825204A6812F4803F76D0CD
:102000004A4D2A681A432A604A6812F4003F74D085
:10201000464D6A681A436A604A6812F4801F72D09B
:10202000424DAA681A43AA604A6812F4001F70D091
:102030003E4DEA681343EB6001340B6833FA04F257
:102040006DD00122A24013409A42F5D14D68122D65
:1020500030D00BD8022D2AD07FF67DAF032D2FD0A4
:10206000112D7FF47EAFCE6804367AE7304FBD4243
:1020700016D00CD92F4FBD4212D007F58037BD4284
:102080000ED0A7F58017BD427FF46BAF08E0A7F52F
:102090008017BD4204D007F58037BD427FF461AFA1
:1020A0008D687DB1012D08D04261082659E7CE68C0
:1020B000083656E7CE680C3653E70261082650E72B
:1020C00000264EE704264CE700F1040E4DE7A4F18C
:1020D0000805AD004DE74FF0030E86E74FF0000E08
:1020E00083E74FF0010E80E74FF0020E7DE70F4DC2
:1020F0002A6822EA03022A6086E70C4D6A6822EA0F
:1021000003026A6088E7094DAA6822EA0302AA600E
:102110008AE7064DEA6822EA0303EB608CE703B026
:10212000F0BD00BF0010024000000140000401406B
:1021300000002110000031100008014012B909040C
:102140000161704701617047C3680B4201D10161B1
:10215000704741617047000082B0084B1B68084A15
:10216000A2FB03235B0A00FB03F0019000BF019B6D
:102170005A1E0192002BF9D102B0704708000020CE
:10218000D34D6210002800F0F58170B582B004468E
:10219000036813F0010F3DD0AB4B5B6803F00C03F9
:1021A000042B2ED0A84B5B6803F00C03082B23D024
:1021B0006368B3F5803F51D0002B55D103F18043C4
:1021C00003F504331A6822F480321A601A6822F484
:1021D00080221A606368002B60D0FFF7D5FC0546AB
:1021E000994B1B6813F4003F14D1FFF7CDFC401B43
:1021F0006428F5D90320C2E1934B5B6813F4803F58
:10220000D6D0914B1B6813F4003F03D06368002BBA
:1022100000F0B281236813F0020F65D08A4B5B682F
:1022200013F00C0F4ED0884B5B6803F00C03082BA7
:1022300043D02369002B79D00122844B1A60FFF729
:10224000A3FC0546804B1B6813F0020F65D1FFF716
:102250009BFC401B0228F5D9032090E17A4A1368C1
:1022600043F480331360B5E7B3F5A02F09D0764B64
:102270001A6822F480321A601A6822F480221A60E6
:10228000A8E703F18043A3F53C331A6842F48022A7
:102290001A601A6842F480321A609BE7FFF774FCF8
:1022A0000546694B1B6813F4003FB3D0FFF76CFC85
:1022B000401B6428F5D9032061E1634B5B6813F48C
:1022C000803FB6D1604B1B6813F0020F04D0236926
:1022D000012B01D0012052E15B4A136823F0F8037F
:1022E000616943EAC1031360236813F0080F32D019
:1022F000A369002B6ED00122554B1A60FFF744FCF6
:102300000546514B5B6A13F0020F21D1FFF73CFCED
:10231000401B0228F5D9032031E14B4A136823F012
:10232000F803616943EAC1031360DDE70022474B0C
:102330001A60FFF729FC0546434B1B6813F0020F98
:10234000D2D0FFF721FC401B0228F5D9032016E16B
:102350000120FFF701FF236813F0040F00F09880BD
:10236000394BDB6913F0805F46D1374BDA6942F0B5
:102370008052DA61DB6903F080530193019B0125F0
:10238000344B1B6813F4807F38D0E368012B49D0AD
:10239000002B4DD103F1804303F504331A6A22F078
:1023A00001021A621A6A22F004021A62E368002B20
:1023B0005CD0FFF7E9FB0646234B1B6A13F0020FC4
:1023C00065D1FFF7E1FB801B41F288339842F3D9D6
:1023D0000320D4E000221E4B1A60FFF7D5FB054610
:1023E000194B5B6A13F0020FB5D0FFF7CDFB401B12
:1023F0000228F5D90320C2E00025C1E7154A136879
:1024000043F480731360FFF7BFFB0646114B1B6854
:1024100013F4807FB9D1FFF7B7FB801B6428F5D98F
:102420000320ACE0084A136A43F001031362BDE7DE
:10243000052B11D0044B1A6A22F001021A621A6AA3
:1024400022F004021A62B1E700100240000042428A
:1024500080044242007000404C4B1A6A42F0040271
:102460001A621A6A42F001021A629FE7FFF78CFBB8
:102470000646464B1B6A13F0020F08D0FFF784FB99
:10248000801B41F288339842F3D9032077E0E5B905
:10249000E369002B72D03D4A526802F00C02082A10
:1024A00056D0022B17D00022394B1A60FFF76CFB75
:1024B0000446364B1B6813F0007F47D0FFF764FBE0
:1024C000001B0228F5D9032059E0304AD36923F0D4
:1024D0008053D361DCE700222D4B1A60FFF754FBD9
:1024E00005462A4B1B6813F0007F06D0FFF74CFB14
:1024F000401B0228F5D9032041E0236AB3F5803F51
:102500001AD022494B6823F47413226A606A02438A
:1025100013434B6001221E4B1A60FFF735FB044644
:102520001A4B1B6813F0007F0ED1FFF72DFB001B29
:102530000228F5D9032022E0144A536823F400331B
:10254000A1680B435360DCE7002018E0002016E090
:10255000012B16D00D4B5B6803F48031226A914247
:1025600001D001200BE003F47013626A93420AD099
:10257000012004E001207047012000E0002002B0AB
:1025800070BD0120FBE70020F9E700BF001002400A
:102590006000424210B586B0154C94E80F000DF172
:1025A000180E0EE90F00238AADF80430114B5B685A
:1025B00003F00C02082A18D1C3F38342724412F8C4
:1025C000102C13F4803F03D10B4800FB02F00DE008
:1025D000084B5B68C3F34043734413F8143C07484B
:1025E00000FB02F0B0FBF3F000E0044806B010BDC1
:1025F00028A400080010024000093D0000127A00E3
:10260000002800F0A38070B50446524B1B6803F00D
:1026100007038B420CD24F4A136823F007030B4386
:102620001360136803F00703994201D0012070BDC5
:10263000236813F0020F17D013F0040F04D0464A9A
:10264000536843F4E0635360236813F0080F04D029
:10265000414A536843F4605353603F4A536823F040
:10266000F003A068034353600D46236813F0010F85
:1026700031D06368012B20D0022B25D0364A126856
:1026800012F0020F64D034494A6822F00302134367
:102690004B60FFF779FA06462F4B5B6803F00C039B
:1026A0006268B3EB820F16D0FFF76EFA801B41F21F
:1026B00088339842F0D9032070BD274A126812F47B
:1026C000003FE0D1012070BD234A126812F0007F64
:1026D000D9D1012070BD1F4B1B6803F007039D4239
:1026E0000CD21C4A136823F007032B4313601368B2
:1026F00003F007039D4201D0012070BD236813F051
:10270000040F06D0144A536823F4E063E1680B43D6
:102710005360236813F0080F07D00F4A536823F45F
:102720006053216943EAC1035360FFF733FF0A4B4B
:102730005B68C3F30313094AD35CD840084B1860A5
:10274000084B1868FFF7DCF9002070BD01207047C6
:10275000012070BD002002400010024040AD000882
:102760000800002004000020014B1868704700BFDB
:102770000800002008B5FFF7F7FF044B5B68C3F3C0
:102780000223034AD35CD84008BD00BF00100240BA
:1027900050AD000808B5FFF7E7FF044B5B68C3F3D3
:1027A000C223034AD35CD84008BD00BF00100240DA
:1027B00050AD00080268D36823F0C003D360202323
:1027C00080F8393070470268D36823F49073D3607F
:1027D0000268536923F001035361202380F83A30E3
:1027E000704790F83930DBB2212B01D002207047BE
:1027F0008368B3F5805F17D00268036A591C0162D1
:102800001B785360C38C9BB2013B9BB2C384DBB982
:102810000268D36823F08003D3600268D36843F072
:102820004003D36000207047036A02681B88C3F32B
:102830000803536003691BB9036A02330362E1E7CB
:10284000036A01330362DDE70020704738B50446B0
:102850000268136923F44053C1680B431361836812
:1028600002691343426913430168CA6822F4B052F3
:1028700022F00C021343CB600268536923F44073C7
:1028800081690B4353610268214B9A421FD0FFF7C5
:1028900071FF216800EB800000EB800063689B0003
:1028A000B0FBF3F01B4DA5FB00325409642202FB80
:1028B000140213013233A5FB03235B0903F0F0027A
:1028C00002EB041203F00F0313448B6038BDFFF7D3
:1028D00061FF216800EB800000EB800063689B00D3
:1028E000B0FBF3F00B4DA5FB00325409642202FB50
:1028F000140213013233A5FB03235B0903F0F0023A
:1029000002EB041203F00F0313448B6038BD00BFC9
:10291000003801401F85EB512DE9F04105460F4677
:1029200016469846069C2B681B6837EA03030CBFC3
:1029300001230023B3421ED1B4F1FF3FF3D02CB1E9
:10294000FFF722F9A0EB08008442ECD22A68D36892
:1029500023F4D073D3602A68536923F001035361D1
:10296000202385F8393085F83A30002385F838304F
:102970000320BDE8F0810020BDE8F08158B310B518
:10298000044690F839300BB3242384F83930226898
:10299000D36823F40053D3602046FFF757FF226823
:1029A000136923F4904313612268536923F02A03C7
:1029B00053612268D36843F40053D3600020E0637E
:1029C000202384F8393084F83A3010BD80F838304C
:1029D00005F048FCD8E7012070472DE9F04182B0AE
:1029E0001E4690F83930DBB2202B04D00223184663
:1029F00002B0BDE8F08104460D469046002955D04E
:102A0000002A55D090F83830012B01D10223EEE78F
:102A1000012380F838300023C363212380F8393044
:102A2000FFF7B2F80746A4F82480A4F8268010E047
:102A300000963B46002280212046FFF76DFF0028CC
:102A400038D122682B88C3F3080353602369CBB9BC
:102A50000235E38C9BB2BBB1E38C9BB2013B9BB2D2
:102A6000E384A368B3F5805FE2D000963B46002282
:102A700080212046FFF750FFF0B923682A785A607A
:102A80000135E6E70135E4E700963B4600224021A8
:102A90002046FFF741FF034608B10323A7E72022A2
:102AA00084F83920002284F83820A0E701239EE72B
:102AB00001239CE703239AE7032398E738B590F8AE
:102AC0003940E4B2202C01D0022038BD002931D099
:102AD000002A31D090F83830012B01D1022038BDC6
:102AE00013460446012280F8382001628384C3849F
:102AF0000025C563212280F83920026B0F489062BF
:102B0000226B0F48D062226B0E481063226B556314
:102B100022680432206BFFF7F1F823686FF040025F
:102B20001A6084F838502268536943F08003536177
:102B3000284638BD012038BD012038BDF12B0008E2
:102B40003D2C0008312D000830B583B090F83A4094
:102B5000E4B2202C02D0022003B030BD00293DD0C9
:102B6000002A3DD090F83830012B01D10220F3E744
:102B700013460A460446012180F838108262838594
:102B80000025C563222180F83A10416B1548886200
:102B9000616B1548C862616B14480863616B4D63D3
:102BA00021680431606BFFF7A9F8019523681A6862
:102BB00001925A680192019A84F83850DA6842F416
:102BC0008072DA602268536943F00103536122681E
:102BD000536943F0400353612846BDE70120BBE73A
:102BE0000120B9E7472C0008252D0008312D0008E9
:102BF00008B5436A0268126812F0200F0CD1002257
:102C0000DA8419684A6922F080024A611A68D36836
:102C100043F04003D36008BD184604F015FB08BD1F
:102C200008B50168CB6823F04003CB60202380F80F
:102C3000393004F009FB002008BD704708B5406A30
:102C4000FFF7FBFF08BD08B5436A0268126812F07F
:102C5000200F13D10022DA851968CA6822F4807225
:102C6000CA6019684A6922F001024A6119684A6912
:102C700022F040024A61202283F83A20184604F0EC
:102C8000F5FA08BD08B590F83A30DBB2222B01D036
:102C9000022008BD8368B3F5805F0FD003690BBBCA
:102CA000836A5A1C8262026852681A70C38D9BB292
:102CB000013B9BB2C385F3B1002008BD826A036962
:102CC00043B903685B68C3F308031380836A023364
:102CD0008362EBE703685B68DBB21380836A0133CE
:102CE0008362E3E7826A531C836203685B6803F0D4
:102CF0007F031370DAE70268D36823F02003D36000
:102D00000268D36823F48073D3600268536923F0A8
:102D100001035361202380F83A3004F0A7FA002021
:102D200008BD704708B5406AFFF7FBFF08BD704754
:102D300010B5446A23685A6994F83930DBB2212B04
:102D400010D023685A6902F0400294F83A30DBB29E
:102D5000222B11D0E36B43F01003E3632046FFF70F
:102D6000E6FF10BD02F08002002AEAD00023E384CF
:102D70002046FFF71FFDE4E7002AEBD00023E385A0
:102D80002046FFF720FDE5E710B50446026813680A
:102D9000D168526913F00F0005D113F0200F02D053
:102DA00011F0200F53D1002867D012F0010202D198
:102DB00011F4907F61D013F0010F06D011F4807FE1
:102DC00003D0E06B40F00100E06313F0040F04D087
:102DD0001AB1E06B40F00200E06313F0020F04D080
:102DE0001AB1E06B40F00400E06313F0080F04D068
:102DF0001AB1E26B42F00802E263E26B002A48D0AB
:102E000013F0200F02D011F0200F24D123685B694A
:102E100003F04003E26B12F0080F00D13BB32046F1
:102E2000FFF7D1FC23685A6912F0400F1BD05A6992
:102E300022F040025A61636B8BB11A4A5A63606B8D
:102E4000FEF796FF28B3606B436B984710BD204692
:102E5000FFF718FF10BD2046FFF714FFD6E7204606
:102E6000FFF765FF10BD2046FFF761FF10BD20464C
:102E7000FFF75DFF0023E36310BD13F0800F02D066
:102E800011F0800F06D113F0400F02D011F0400F67
:102E900004D110BD2046FFF7A4FC10BD2046FFF76B
:102EA000BFFEF6E7A92E000808B5406A0023C385D7
:102EB000C384FFF73CFF08BDF0B507460124002698
:102EC0002046334608E000F1010E01331554013469
:102ED000E4B2FF2C0BD070468B420DD2FD5C002D6E
:102EE000F1D194550133064601300124F4E794559D
:102EF000023076460124EFE79455F0BD03790B705C
:102F000043794B7083798B70C379CB70037A0B71E3
:102F1000437A4B71837A8B71C37ACB7108207047E7
:102F20000B7843604A7843EA022343608A7843EA95
:102F300002434360CA7843EA026343600B798360CB
:102F40004A7943EA022383608A7943EA0243836031
:102F5000CA7943EA026383600820704700487047DB
:102F6000DCAC000800487047B8AC000870B40B78BF
:102F700083804A7843EA0223838000242346032B7C
:102F800006D8CA189278DD00AA4014430133F6E748
:102F90000623A21D934204D25A1ECD5C8D540133E8
:102FA000F7E7053400230B554C1D84601E46032BA8
:102FB00006D88C18E45CDD00AC4026430133F6E70C
:102FC000141D2346A219934204D25A1ECD5C8D547F
:102FD0000133F7E7551E00234B55013C0C44C460F8
:102FE0001E46032B06D88C18E45CDD00AC4026435B
:102FF0000133F6E7043213469419A34204D25C1E4F
:10300000CD5C0D550133F7E7631E0025CD54013A21
:103010000A4402610B5D621C8A5C43EA0223A21C23
:103020008A5C43EA0243E21C8A5C43EA026343612E
:10303000201D70BC7047000000487047F4AB0008CA
:1030400000487047D0AB000870B406460B78037197
:1030500000221346032B07D8581C0C5CDB0004FA33
:1030600003F31A430346F5E70523501D834204D2B8
:103070005C1ECD5C0D550133F7E7043200238B5401
:103080000431B16070BC704700487047BCAB0008A9
:103090000048704798AB0008004870473CA40008FF
:1030A0000048704774AB000870B406460B78436064
:1030B0004A7843EA022343608A7843EA0243436042
:1030C000CA7843EA026343600B7983604A7943EA32
:1030D000022383608A7943EA02438360CA7943EA20
:1030E000026383600B7AC3604A7A43EA0223C360B7
:1030F0008A7A43EA0243C360CA7A43EA0263C3603E
:1031000000221346032B06D8C818047BD80084403D
:1031100022430133F6E7102302F11000834204D268
:103120005C1ECD5C0D550133F6E70F3200238B5446
:103130000F31316170BC70470048704710AD000816
:1031400000487047ECAC000810B48268C3680A708D
:10315000C2F307244C70C2F307448C70120ECA707D
:103160000B71C3F307224A71C3F307428A711B0E26
:10317000CB71026943690A72C2F307244C72C2F32D
:1031800007448C72120ECA720B73C3F307224A7380
:10319000C3F307428A731B0ECB738269C3690A7437
:1031A000C2F307204874C2F307408874120ECA7431
:1031B0000B75C3F307224A75C3F307428A751B0ECA
:1031C000CB75182010BC70472DE9F0030A78002356
:1031D0004E780025340222432B438E780025340498
:1031E00022432B43CE78350A340622432B43002456
:1031F0000D7922432B4391F805804FEA082722439B
:103200003B4391F806804FEA084722433B4391F83D
:1032100007804FEA086722433B43C0E902230E7A46
:10322000002791F8098000234FEA082216431F4324
:1032300091F80A8000234FEA084216431F4391F891
:103240000B804FEA18234FEA086216431F430B7B9B
:1032500026431F4391F80D804FEA082326431F435E
:1032600091F80E804FEA084326431F4391F80F80E0
:103270004FEA0863224632433B43C0E904230E7CF5
:10328000002791F8118000234FEA082216431F43BC
:1032900091F8128000234FEA084216431F4391F829
:1032A00013804FEA18234FEA086216431F430B7D31
:1032B00026431F4391F815804FEA082326431F43F6
:1032C00091F816804FEA084326431F4391F8178070
:1032D0004FEA0863224632433B43C0E906231820E5
:1032E000BDE8F003704700000048704720AB0008BD
:1032F00000487047FCAA000810B48268C3680A70CE
:10330000C2F307244C70C2F307448C70120ECA70CB
:103310000B71C3F307224A71C3F307428A711B0E74
:10332000CB71026943690A72C2F307244C72C2F37B
:1033300007448C72120ECA720B73C3F307224A73CE
:10334000C3F307428A731B0ECB738269C3690A7485
:10335000C2F307244C74C2F307448C74120ECA746F
:103360000B75C3F307224A75C3F307428A751B0E18
:10337000CB75026A436A0A76C2F307204876C2F325
:1033800007408876120ECA760B77C3F307224A7776
:10339000C3F307428A771B0ECB77202010BC7047FF
:1033A0002DE9F0030C7800254E78002332021443F7
:1033B0001D438E780023320414431D43CE78330A14
:1033C000320614431D4300220B7914431D4391F828
:1033D00005804FEA082714433D4391F806804FEAE1
:1033E000084714433D4391F807804FEA08671443A8
:1033F0003D43C0E902450E7A002791F80980002577
:103400004FEA082426432F4391F80A8000254FEA0B
:10341000084426432F4391F80B804FEA18254FEAC2
:10342000086426432F430D7B16432F4391F80D80EC
:103430004FEA082516432F4391F80E804FEA0845BE
:1034400016432F4391F80F804FEA08651446344322
:103450003D43C0E904450E7C002791F8118000250A
:103460004FEA082426432F4391F8128000254FEAA3
:10347000084426432F4391F813804FEA18254FEA5A
:10348000086426432F430D7D16432F4391F8158082
:103490004FEA082516432F4391F816804FEA084556
:1034A00016432F4391F817804FEA086514463443BA
:1034B0003D43C0E906450E7E002791F8198000259E
:1034C0004FEA082426432F4391F81A8000254FEA3B
:1034D000084426432F4391F81B804FEA18254FEAF2
:1034E000086426432F430D7F16432F4391F81D8018
:1034F0004FEA082516432F4391F81E804FEA0845EE
:1035000016432F4391F81F804FEA08651446344351
:103510003D43C0E908452020BDE8F00370470000A6
:103520000048704788A900080048704764A900084F
:10353000004870475CAB00080048704738AB000893
:1035400000487047C8A9000800487047A4A90008AF
:10355000F8B506460F4603790B7043794B708379B3
:103560008B70C379CB700024042573689C420BD206
:10357000B06FC4EBC4021301C25812687919184421
:10358000904705440134F0E72846F8BD00487047ED
:1035900034AC00080048704710AC000810B48268D2
:1035A000C3680A70C2F307244C70C2F307448C70DE
:1035B000120ECA700B71C3F307224A71C3F307429C
:1035C0008A711B0ECB71026943690A72C2F3072428
:1035D0004C72C2F307448C72120ECA720B73C3F39F
:1035E00007224A73C3F307428A731B0ECB738269A7
:1035F000C3690A74C2F307204874C2F30740887491
:10360000120ECA740B75C3F307224A75C3F307423F
:103610008A751B0ECB75182010BC70472DE9F0037E
:103620000A7800234E780025340222432B438E78FB
:103630000025340422432B43CE78350A3406224336
:103640002B4300240D7922432B4391F805804FEA48
:10365000082722433B4391F806804FEA084722435C
:103660003B4391F807804FEA086722433B43C0E998
:1036700002230E7A002791F8098000234FEA0822DE
:1036800016431F4391F80A8000234FEA084216436D
:103690001F4391F80B804FEA18234FEA0862164344
:1036A0001F430B7B26431F4391F80D804FEA0823ED
:1036B00026431F4391F80E804FEA084326431F43D9
:1036C00091F80F804FEA0863224632433B43C0E93A
:1036D00004230E7C002791F8118000234FEA082272
:1036E00016431F4391F8128000234FEA0842164305
:1036F0001F4391F813804FEA18234FEA08621643DC
:103700001F430B7D26431F4391F815804FEA082382
:1037100026431F4391F816804FEA084326431F4370
:1037200091F817804FEA0863224632433B43C0E9D1
:1037300006231820BDE8F0037047000000487047DA
:10374000B0AA000800487047FCAA0008004870476B
:103750009CAA00080048704778AA000800487047F3
:103760000CAA000800487047E8A900080048704704
:10377000E8AA000800487047C4AA0008004870473B
:1037800054AA00080048704730AA00080048704753
:10379000A4AC00080048704780AC000841F2F40374
:1037A000C05C7047C06D704700487047E8AA0008C9
:1037B00000487047C4AA00082DE9F047D0E9048901
:1037C0000022284B00F14001D1E90001FCF78AFEFC
:1037D00006460F4602460B4640464946FCF7D0FCDB
:1037E000FDF742F90546DFF884A0CAF8000042461A
:1037F0004B4630463946FCF7C1FCFDF735F9044627
:10380000CAF804004FF07E512846FDF7E9F918B1D7
:103810004FF07E52CAF800201349144B1868FDF788
:10382000C1F9B8B94FF07E512046FDF7D9F918B16A
:103830004FF07E520D4B5A600B490C4B5868FDF708
:10384000B1F958B900224FF400510948FEF776FC4F
:10385000BDE8F087044A054B1A60E3E7024A034BD0
:103860005A60EFE70000E03F000080BF3005002015
:103870000010014030B589B00024049405940694EA
:1038800007941D4B9A6942F010029A619A6902F0FE
:1038900010020092009A9A6942F020029A619A6995
:1038A00002F020020192019A9A6942F004029A61A0
:1038B0009A6902F004020292029A9A6942F008029E
:1038C0009A619B6903F008030393039B0B4D01224C
:1038D0004FF400512846FEF731FC4FF40053049397
:1038E0000123059306940223079304A92846FEF7B3
:1038F0002DFB09B030BD00BF001002400010014098
:1039000000B583B00E4B5A6942F001025A615B69FF
:1039100003F001030193019B002211460E20FEF7E4
:103920004BF90E20FEF77AF9002211460F20FEF720
:1039300043F90F20FEF772F903B05DF804FB00BFF6
:103940000010024008B50948094B83604FF46143F9
:10395000C36000230361436183610C22C26103627F
:1039600043620830FFF70AF808BD00BF30050020A9
:103970000038014008B50948094B83644FF4E1332E
:10398000C36400230365436583650C22C265036637
:1039900043664830FEF7F2FF08BD00BF3005002047
:1039A0000044004008B50D480D4BC0F888304FF476
:1039B000E133C0F88C300023C0F89030C0F8943068
:1039C000C0F898300C22C0F89C20C0F8A030C0F895
:1039D000A4308830FEF7D2FF08BD00BF30050020BC
:1039E0000048004070B505460C4603790B704379DA
:1039F0004B7083798B70C379CB70037A0B71437AE8
:103A00004B71837A8B71C37ACB71037B0B72437BCF
:103A10004B72837B8B72C37BCB720069FCF7A2FB7A
:103A200006460023032B07D803F10C01DA0026FA1F
:103A300002F262540133F5E73246296904F11000BD
:103A400006F0B2F906F1100070BDF8B506460C4656
:103A500003790B7083881B0A4B708068FCF782FB2C
:103A600007460023032B06D8991CDA0027FA02F236
:103A700062540133F6E73A46B168A01D06F094F9A6
:103A80000637F068FCF76EFB05460023032B06D8CB
:103A9000F918DA0025FA02F262540133F6E7043726
:103AA0002A46F168E01906F07FF93D443069FCF7D9
:103AB00059FB07460023032B06D8E918DA0027FA3A
:103AC00002F262540133F6E704353A46316960196F
:103AD00006F06AF93D44736963556A1CC3F3072114
:103AE000A154AA1CC3F30741A154EA1C1B0EA35402
:103AF000281DF8BD70B506460D4603790B70806829
:103B0000FCF730FB04460023032B06D85A1CDB00CD
:103B100024FA03F3AB541346F6E72246B168681D56
:103B200006F042F9601D70BD2DE9F84306460D46CA
:103B300003790B7043794B7083798B70C379CB70A9
:103B40000022042473689A4211D2F36853F8223099
:103B50002B55611CC3F307206854A11CC3F3074015
:103B60006854E11C1B0E6B5404340132EAE7337CC9
:103B70002B55631C727CEA54A31CB27CEA54E31CF0
:103B8000F27CEA540434002233699A4211D2B369B8
:103B900053F822302B55611CC3F307206854A11C35
:103BA000C3F307406854E11C1B0E6B54043401320C
:103BB000EAE7337F2B55631C727FEA54A31CB27F64
:103BC000EA54E31CF27FEA5404344FF000080AE0A0
:103BD0000434736A3A4653F80910281906F0E4F8D9
:103BE0003C4408F10108F369984512D2736A4FEA20
:103BF000880953F82800FCF7B5FA07462046002349
:103C0000032BE5D8C118DA0027FA02F26A5401330F
:103C1000F6E72046BDE8F883F8B506460D460C7871
:103C20004B7844EA03248B7844EA0344CB7844EA93
:103C3000036443689C4219D87460002204247368AA
:103C40009A4219D22B5D611C695C43EA0123A11CD5
:103C5000695C43EA0143E11C695C43EA0163B360C8
:103C60000434F16841F822300132E8E7A100C0686D
:103C700006F0BAF8F060DFE72F5D631CEB5C47EA03
:103C80000327A31CEB5C47EA0347E31CEB5C47EA12
:103C90000367043433699F4218D8376100223369BF
:103CA0009A4219D22B5D611C695C43EA0123A11C75
:103CB000695C43EA0143E11C695C43EA01637361A7
:103CC0000434B16941F822300132E8E7B900B06943
:103CD00006F08AF8B061E0E72F5D631CEB5C47EA11
:103CE0000327A31CEB5C47EA0347E31CEB5C47EAB2
:103CF00003670434F3699F4203D8F7614FF0000E65
:103D00001BE0B900706A06F06FF87062F5E70434E2
:103D10002346A018834204D2591EEF5C6F5401332E
:103D2000F7E7431E0022EA54013C2B193362044694
:103D3000726A42F82E300EF1010EF3699E450BD2E5
:103D4000274600221346032BE1D8E919C95CD800A5
:103D500081400A430133F6E72046F8BD30B585B00F
:103D6000632904DD41F2F403C35C002B69D00D46E6
:103D7000044613681B6800F61F0110469847FF238E
:103D800084F81838FE2384F81938C3B284F81A3836
:103D9000C0F3072284F81B281344DBB2DB4384F80A
:103DA0001C3884F81D5845F3072384F81E38052372
:103DB0000022C11D8B4205DAE11891F818180A4457
:103DC0000133F6E700F108055342D2B2DBB258BF27
:103DD0005A42D243214481F81828B5F5006F20DCFF
:103DE00004F6180160686B1EB3F5006F16D200F57B
:103DF00080531B78002BFAD000239D4203DDCA5C60
:103E0000C2540133F9E700F5805300221A70AAB2B8
:103E1000014641F20803C058FEF750FE284605B09F
:103E200030BD094B019303238DF80830074B0393F2
:103E300023681B6801AA0721204698474FF0FF35E9
:103E4000ECE70025EAE700BFF0A7000844AC000853
:103E500030B4026943690A70C2F307254D70C2F39A
:103E600007458D70120ECA700B71C3F307224A7199
:103E7000C3F307428A711B0ECB718269C3690A7250
:103E8000C2F307254D72C2F307458D72120ECA7236
:103E90000B73C3F307224A73C3F307428A731B0EE3
:103EA000CB73026A436A0A74C2F307244C74C2F3E8
:103EB00007448C74120ECA740B75C3F307224A753B
:103EC000C3F307428A751B0ECB7501F11803046B0F
:103ED000426B0C76C4F307215970C4F30741997003
:103EE000240EDC701A71C2F307215971C2F3074125
:103EF0009971120EDA71816BC26B1972C1F30724CA
:103F00005C72C1F307449C72090ED9721A73C2F332
:103F100007215973C2F307419973120EDA73016CCA
:103F2000426C1974C1F307205874C1F307409874A8
:103F3000090ED9741A75C2F307215975C2F30741E6
:103F40009975120EDA75302030BC70472DE9F04FAC
:103F5000E3B082460D460C784B7844EA03248B7814
:103F600044EA0344CB7844EA036443689C4207D89C
:103F7000CAF804404FF0000B04239846A94687E294
:103F8000C4EBC4031901806F05F02EFFCAF8780056
:103F9000EEE7102301F110029A4204D95A1EC55CC3
:103FA00085540133F6E70F310023435400F10F012C
:103FB00021611C46032B06D8C118895CDD00A9408D
:103FC0000C430133F6E7151D2B4662199A4204D9BA
:103FD0005A1EC15C81540133F7E7531E4FF0000EA7
:103FE00000F803E0013D0544CCF818508118845CCA
:103FF00000254E78CDF8E4E030023890DDE93867EE
:1040000026432F4334463D468E78CDF8ECE030040D
:104010003A90DDE93A6726432F4334463D46CE7851
:10402000300A3D9030063C90DDE93C6726432F4343
:1040300034463D4608793F90CDF8F8E0DDE93E672B
:1040400026432F4334463D464E7930024190CDF809
:1040500000E140A8D0E9006726432F4334463D469F
:104060008E7930044390CDF808E142A8D0E900678A
:1040700026432F4334463D46CE7930064590CDF851
:1040800010E144A8D0E9006726432F4334463D465B
:10409000CCE90C450C7A00254E7ACDF81CE13002B3
:1040A000469046A8D0E9006726432F4334463D4654
:1040B0008E7ACDF824E13004489048A8D0E9006712
:1040C00026432F4334463D46CE7A300A4B90300685
:1040D0004A904AA8D0E9006726432F4334463D461C
:1040E000087B4D90CDF830E14CA8D0E9006726431D
:1040F0002F4334463D464E7B30024F90CDF838E199
:104100004EA8D0E9006726432F4334463D468E7BB8
:1041100030045190CDF840E150A8D0E90067264323
:104120002F4334463D46CE7B30065390CDF848E1D0
:1041300052A8D0E9006726432F4334463D46CCE9D8
:104140000E450C7C00254E7CCDF854E13002549095
:1041500054A8D0E9006726432F4334463D468E7C61
:10416000CDF85CE13004569056A8D0E900672643AC
:104170002F4334463D46CE7C300A59903006589045
:1041800058A8D0E9006726432F4334463D46087DB2
:104190005B90CDF868E15AA8D0E9006726432F4329
:1041A00034463D464E7D30025D90CDF870E15CA80E
:1041B000D0E9006726432F4334463D468E7D3004C8
:1041C0005F90CDF878E15EA8D0E9006726432F43E1
:1041D00034463D46CE7D30066190CDF880E160A842
:1041E000D0E9006726432F4334463D46CCE91045CD
:1041F00001F11803087E00215E78CDF804E0350255
:1042000000959DE8600005430E43284631469E78A0
:10421000CDF80CE035040295DDE9025605430E4366
:1042200028463146DE78350A059535060495DDE9E0
:10423000045605430E43284631461D790795CDF8AF
:1042400018E0DDE9065605430E43284631465E79FF
:1042500035020995CDF820E0DDE9085605430E4307
:10426000284631469E7935040B95CDF828E0DDE9E6
:104270000A5605430E4328463146DE7935060D952C
:10428000CDF830E0DDE90C5605430E4328463146B3
:10429000CCE91401187A00215E7ACDF83CE03502B1
:1042A0000E95DDE90E5605430E43284631469E7AAB
:1042B000CDF844E035041095DDE9105605430E4372
:1042C00028463146DE7A350A139535061295DDE922
:1042D000125605430E43284631461D7B1595CDF8F1
:1042E00050E0DDE9145605430E43284631465E7B17
:1042F00035021795CDF858E0DDE9165605430E4313
:10430000284631469E7B35041995CDF860E0DDE9FD
:10431000185605430E4328463146DE7B35061B956D
:10432000CDF868E0DDE91A5605430E4328463146CC
:10433000CCE91601187C00215E7CCDF874E03502D2
:104340001C95DDE91C5605430E43284631469E7CEC
:10435000CDF87CE035041E95DDE91E5605430E437D
:1043600028463146DE7C350A219535062095DDE963
:10437000205605430E43284631461D7D2395CDF832
:1043800088E0DDE9225605430E43284631465E7D2E
:1043900035022595CDF890E0DDE9245605430E431E
:1043A000284631469E7D35042795CDF898E0DDE915
:1043B000265605430E4328463146DE7D35062995AF
:1043C000CDF8A0E0DDE9285605430E4328463146E6
:1043D000CCE91801187E00215E7ECDF8ACE03502F4
:1043E0002A95DDE92A5605430E43284631469E7E2E
:1043F000CDF8B4E035042C95DDE92C5605430E4389
:1044000028463146DE7E350A2F9535062E95DDE9A4
:104410002E5605430E43284631461D7F3195CDF873
:10442000C0E0DDE9305605430E43284631465E7F45
:1044300035023395CDF8C8E0DDE9325605430E4329
:10444000284631469E7F35043595CDF8D0E0DDE92C
:10445000345605430E4328463146DE7F33063793F4
:10446000CDF8D8E0DDE9365605430E4328463146FF
:10447000CCE91A0138329044DAF87830CBEBCB0231
:10448000100170226146184405F08EFC0BF1010BFF
:10449000DAF804309B453CD20AF1080C09EB08001D
:1044A0000AF10C0419F808306360427843EA0223E9
:1044B0006360827843EA02436360C27843EA02633E
:1044C00063600379A360427943EA0223A36082799F
:1044D00043EA0243A360C27943EA0263A360037A1A
:1044E000E360427A43EA0223E360827A43EA0243CA
:1044F000E360C27A43EA0263E36000210D46032DC4
:104500003FF647AD43191B7BEA0093401943013541
:10451000F5E7404663B0BDE8F08F30B40269436907
:104520000A70C2F307254D70C2F307458D70120E55
:10453000CA700B71C3F307224A71C3F307428A7131
:104540001B0ECB718269C3690A72C2F307254D72D3
:10455000C2F307458D72120ECA720B73C3F30722A2
:104560004A73C3F307428A731B0ECB73026A436A12
:104570000A74C2F307244C74C2F307448C74120EFD
:10458000CA740B75C3F307224A75C3F307428A75D1
:104590001B0ECB7501F11803046B426B0C76C4F350
:1045A00007215970C4F307419970240EDC701A7109
:1045B000C2F307215971C2F307419971120EDA71E2
:1045C000816BC26B1972C1F307245C72C1F307449B
:1045D0009C72090ED9721A73C2F307215973C2F380
:1045E00007419973120EDA73016C426C1974C1F3AE
:1045F00007245C74C1F307449C74090ED9741A75BE
:10460000C2F307215975C2F307419975120EDA7585
:10461000816CC26C1976C1F307205876C1F307404C
:104620009876090ED9761A77C2F307215977C2F323
:1046300007419977120EDA77382030BC704730B4D2
:10464000026943690A70C2F307254D70C2F307453A
:104650008D70120ECA700B71C3F307224A71C3F337
:1046600007428A711B0ECB718269C3690A72C2F359
:1046700007254D72C2F307458D72120ECA720B7375
:10468000C3F307224A73C3F307428A731B0ECB732B
:10469000026A436A0A74C2F307244C74C2F30744E3
:1046A0008C74120ECA740B75C3F307224A75C3F3D8
:1046B00007428A751B0ECB7501F11803046B426B20
:1046C0000C76C4F307215970C4F307419970240E86
:1046D000DC701A71C2F307215971C2F30741997155
:1046E000120EDA71816BC26B1972C1F307245C720E
:1046F000C1F307449C72090ED9721A73C2F30721E1
:104700005973C2F307419973120EDA73016C426C4C
:104710001974C1F307245C74C1F307449C74090E37
:10472000D9741A75C2F307215975C2F307419975F7
:10473000120EDA75816CC26C1976C1F307205876B7
:10474000C1F307409876090ED9761A77C2F307218C
:104750005977C2F307419977120EDA77382030BCC7
:104760007047F0B48269C3690A70C2F307254D70BF
:10477000C2F307458D70120ECA700B71C3F3072286
:104780004A71C3F307428A711B0ECB71026A436AF6
:104790000A72C2F307254D72C2F307458D72120EDD
:1047A000CA720B73C3F307224A73C3F307428A73B7
:1047B0001B0ECB73826AC36A0A74C2F307244C745B
:1047C000C2F307448C74120ECA740B75C3F307222C
:1047D0004A75C3F307428A751B0ECB7501F11803A6
:1047E000846BC26B0C76C4F307265E70C4F3074675
:1047F0009E70240EDC701A71C2F307245C71C2F340
:1048000007449C71120EDA71046C426C1C72C4F382
:1048100007265E72C4F307469E72240EDC721A737A
:10482000C2F307245C73C2F307449C73120EDA735D
:10483000846CC26C1C74C4F307255D74C4F3074513
:104840009D74240EDC741A75C2F307245C75C2F3E0
:1048500007449C75120EDA7500253023232D21D8CC
:1048600005F10A0200EBC20214685268CC545E1CC7
:10487000C4F307278F559E1CC4F307478F55DE1CD2
:10488000240E8C551C1D0A555C1DC2F307260E55BF
:104890009C1DC2F307460E55DC1D120E0A55083347
:1048A0000135DBE71846F0BC7047F8B506460C4604
:1048B000071D3B790B707B794B70BB798B70FB7953
:1048C000CB703B7A0B717B7A4B71BB7A8B71FB7A25
:1048D000CB713B7B0B727B7B4B72BB7B8B72FB7B0D
:1048E000CB723869FBF73EFC05460023032B07D843
:1048F00003F10C01DA0025FA02F262540133F5E704
:104900002A46396904F1100005F04EFA1035B069F5
:10491000FBF728FC07460023032B06D85919DA00B9
:1049200027FA02F262540133F6E704353A46B169D8
:10493000601905F039FA3D446119326B736B6255A9
:10494000C2F307244C70C2F307448C70120ECA7075
:104950000B71C3F307224A71C3F307428A711B0E1E
:10496000CB71B26BF36B0A72C2F307244C72C2F3C1
:1049700007448C72120ECA720B73C3F307224A7378
:10498000C3F307428A731B0ECB73326C736C0A74C9
:10499000C2F307204874C2F307408874120ECA7429
:1049A0000B75C3F307224A75C3F307428A751B0EC2
:1049B000CB7501F11803306D726D0876C0F30721D5
:1049C0005970C0F307419970000ED8701A71C2F384
:1049D00007215971C2F307419971120EDA71B16D55
:1049E000F26D1972C1F307205872C1F30740987233
:1049F000090ED9721A73C2F307215973C2F3074122
:104A00009973120EDA73316E726E1974C1F3072046
:104A10005874C1F307409874090ED9741A75C2F31B
:104A200007215975C2F307419975120EDA75B16EF7
:104A3000F26E1976C1F307205876C1F307409876D5
:104A4000090ED9761A77C2F307215977C2F30741C5
:104A50009977120EDA7705F13800F8BD2DE9F041AB
:104A600006460D46071D3B790B707B794B70BB7971
:104A70008B70FB79CB703B7A0B717B7A4B71BB7A75
:104A80008B71FB7ACB713B7B0B727B7B4B72BB7B5D
:104A90008B72FB7BCB723869FBF764FB0446002307
:104AA000032B07D803F10C01DA0024FA02F26A544E
:104AB0000133F5E72246396905F1100005F074F974
:104AC0001034B069FBF74EFB07460023032B06D8D2
:104AD0001919DA0027FA02F26A540133F6E70434AE
:104AE0003A46B169281905F05FF907EB040E06F1A3
:104AF000200705EB0E01B26BF36B05F80E20C2F335
:104B000007244C70C2F307448C70120ECA700B71EC
:104B1000C3F307224A71C3F307428A711B0ECB719C
:104B2000326C736C0A72C2F307244C72C2F30744EE
:104B30008C72120ECA720B73C3F307224A73C3F34B
:104B400007428A731B0ECB73B26CF36C0A74C2F308
:104B500007204874C2F307408874120ECA740B759C
:104B6000C3F307224A75C3F307428A751B0ECB7540
:104B700001F11803B46DF06D0C76C4F3072C83F8C3
:104B800001C0C4F3074C83F802C0240EDC70187116
:104B9000C0F307245C71C0F307449C71000ED87108
:104BA000346E706E1C72C4F3072C83F809C0C4F312
:104BB000074C83F80AC0240EDC721873C0F3072474
:104BC0005C73C0F307449C73000ED873B46EF06E30
:104BD0001C74C4F3072C83F811C0C4F3074C83F88A
:104BE00012C0240EDC741875C0F307245C75C0F382
:104BF00007449C75000ED875306F726F1876C0F33D
:104C000007245C76C0F307449C76000ED8761A77AA
:104C1000C2F307205877C2F307409877120EDA776D
:104C200000243820232C29D804F10B0307EBC303FD
:104C30001A685B680A5400F1010CC2F3072801F8F6
:104C40000C8000F1020CC2F3074801F80C8000F15F
:104C5000030C120E01F80C20021D8B54421DC3F3ED
:104C6000072C01F802C0821DC3F3074C01F802C0F3
:104C7000C21D1B0E8B5408300134D3E7704406F577
:104C8000CC772C18D6F8B021D6F8B4312A54C2F318
:104C900007256570C2F30745A570120EE2702371F7
:104CA000C3F307226271C3F30742A2711B0EE371C3
:104CB000D6F8B821D6F8BC312272C2F30725657246
:104CC000C2F30745A572120EE2722373C3F30722E3
:104CD0006273C3F30742A2731B0EE373D6F8C021BD
:104CE000D6F8C4312274C2F307216174C2F30741BC
:104CF000A174120EE2742375C3F307226275C3F325
:104D00000742A2751B0EE37504F11803D6F8D01103
:104D1000D6F8D4212176C1F307255D70C1F307458C
:104D20009D70090ED9701A71C2F307215971C2F32F
:104D300007419971120EDA71D6F8D811D6F8DC2134
:104D40001972C1F307255D72C1F307459D72090E03
:104D5000D9721A73C2F307215973C2F307419973C9
:104D6000120EDA73D6F8E011D6F8E4211974C1F303
:104D700007255D74C1F307459D74090ED9741A7532
:104D8000C2F307215975C2F307419975120EDA75FE
:104D900000253023232D23D805F10A0207EBC20298
:104DA00011685268E1545E1CC1F3072E04F806E056
:104DB0009E1CC1F3074E04F806E0DE1C090EA15547
:104DC000191D6254591DC2F307266654991DC2F37A
:104DD00007466654D91D120E625408330135D9E7CF
:104DE0001844BDE8F081F0B48269C3690A70C2F367
:104DF00007254D70C2F307458D70120ECA700B71F6
:104E0000C3F307224A71C3F307428A711B0ECB71A9
:104E1000026A436A0A72C2F307254D72C2F307455C
:104E20008D72120ECA720B73C3F307224A73C3F357
:104E300007428A731B0ECB73826AC36A0A74C2F379
:104E400007244C74C2F307448C74120ECA740B7599
:104E5000C3F307224A75C3F307428A751B0ECB754D
:104E600001F11803856BC46B0D76C5F307265E70E0
:104E7000C5F307469E702D0EDD701C71C4F3072527
:104E80005D71C4F307459D71240EDC71056C446CA3
:104E90001D72C5F307265E72C5F307469E722D0E7E
:104EA000DD721C73C4F307255D73C4F307459D735E
:104EB000240EDC73856CC46C1D74C5F307265E7408
:104EC000C5F307469E742D0EDD741C75C4F30725CB
:104ED0005D75C4F307459D75240EDC75046D426D48
:104EE0001C76C4F307255D76C4F307459D76240E32
:104EF000DC761A77C2F307245C77C2F307449C7709
:104F0000120EDA7700253823232D21D805F10B0264
:104F100000EBC20214685268CC545E1CC4F307272D
:104F20008F559E1CC4F307478F55DE1C240E8C55ED
:104F30001C1D0A555C1DC2F307260E559C1DC2F3AD
:104F400007460E55DC1D120E0A5508330135DBE706
:104F50001846F0BC70472DE9F84F0C7800254E78C4
:104F60000023320214431D438E780023320414437D
:104F70001D43CE78330A320614431D4300220B79B9
:104F800014431D4391F805804FEA082744EA0208BC
:104F900045EA07098E79350448EA020849EA050915
:104FA000CE79350642EA080445EA0905C0E9084514
:104FB00091F808804FF000094E7A0025340248EA43
:104FC000040849EA05098E7A0025340448EA0408F1
:104FD00049EA0509CE7A350A340648EA040849EA5E
:104FE00005090F7B48EA020849EA07094E7B3502AA
:104FF00048EA020849EA05098E7B350448EA0208B6
:1050000049EA0509CE7B350642EA080445EA090566
:10501000C0E90A4591F810804FF000094E7C002548
:10502000340248EA040849EA05098E7C0025340464
:1050300048EA040849EA0509CE7C350A340648EAFC
:10504000040849EA05090F7D48EA020849EA070908
:105050004E7D350248EA020849EA05098E7D35048D
:1050600048EA020849EA0509CE7D350642EA080405
:1050700045EA0905C0E90C4501F118030E7E002739
:1050800093F8018000254FEA082446EA040847EA1D
:1050900005099E780025340448EA040849EA050910
:1050A000DE78350A340648EA040849EA050993F827
:1050B00004B048EA020849EA0B095E79350248EA79
:1050C000020849EA05099E79350448EA020849EAD6
:1050D0000509DE79350642EA080445EA0905C0E912
:1050E000104593F808804FF000095E7A00253402DD
:1050F00048EA040849EA05099E7A0025340448EA8A
:10510000040849EA0509DE7A350A340648EA040843
:1051100049EA05091F7B48EA020849EA07095E7B5C
:10512000350248EA020849EA05099E7B350448EA47
:10513000020849EA0509DE7B350642EA080445EA29
:105140000905C0E9124593F810804FF000095E7C14
:105150000025340248EA040849EA05099E7C002536
:10516000340448EA040849EA0509DE7C350A3406B5
:1051700048EA040849EA05091F7D48EA020849EAA5
:1051800007095E7D350248EA020849EA05099E7D65
:10519000350442EA080445EA0905DE7D4FEA06695E
:1051A000144345EA0905C0E91445836D103098475A
:1051B000BDE8F88F2DE9F04300F1080E0C780025CA
:1051C0004E780023320214431D438E7800233204AC
:1051D00014431D43CE78330A320614431D43002284
:1051E0000B7914431D4391F805804FEA082744EAE0
:1051F000020845EA07098E79350448EA020849EAB7
:105200000509CE79350642EA080445EA0905C0E9F0
:10521000044591F808804FF000094E7A00253402C9
:1052200048EA040849EA05098E7A0025340448EA68
:10523000040849EA0509CE7A350A340648EA040822
:1052400049EA05090F7B48EA020849EA07094E7B4B
:10525000350248EA020849EA05098E7B350448EA26
:10526000020849EA0509CE7B350642EA080445EA08
:105270000905C0E9064591F810804FF000094E7C01
:105280000025340248EA040849EA05098E7C002515
:10529000340448EA040849EA0509CE7C350A340694
:1052A00048EA040849EA05090F7D48EA020849EA84
:1052B00007094E7D350248EA020849EA05098E7D54
:1052C000350448EA020849EA0509CE7D350642EA76
:1052D000080445EA0905C0E9084501F118030E7EF6
:1052E000002793F8018000254FEA082434433D430A
:1052F00093F8028000274FEA084634433D4393F871
:1053000003804FEA18274FEA086634433D431F796C
:1053100014433D4393F805804FEA082714433D4367
:1053200093F806804FEA084714433D4393F80780FB
:105330004FEA086714433D43C0E90C451E7A002735
:1053400093F8098000254FEA082426432F4393F859
:105350000A8000254FEA084426432F4393F80B8028
:105360004FEA18254FEA086426432F431D7B164356
:105370002F4393F80D804FEA0825144634433D43EC
:1053800093F80E804FEA084714433D4393F80F808B
:105390004FEA086714433D43C0E90E451E7C0027D1
:1053A00093F8118000254FEA082426432F4393F8F1
:1053B000128000254FEA084426432F4393F81380B8
:1053C0004FEA18254FEA086426432F431D7D1643F4
:1053D0002F4393F815804FEA082516432F4393F87F
:1053E00016804FEA0845144634433D4393F817802E
:1053F0004FEA086714433D43C0E910453020BDE83B
:10540000F0832DE9F04300F1080E0C7800254E786A
:105410000023320214431D438E78002332041443C8
:105420001D43CE78330A320614431D4300220B7904
:1054300014431D4391F805804FEA082744EA020807
:1054400045EA07098E79350448EA020849EA050960
:10545000CE79350642EA080445EA0905C0E9044563
:1054600091F808804FF000094E7A0025340248EA8E
:10547000040849EA05098E7A0025340448EA04083C
:1054800049EA0509CE7A350A340648EA040849EAA9
:1054900005090F7B48EA020849EA07094E7B3502F5
:1054A00048EA020849EA05098E7B350448EA020801
:1054B00049EA0509CE7B350642EA080445EA0905B2
:1054C000C0E9064591F810804FF000094E7C002598
:1054D000340248EA040849EA05098E7C00253404B0
:1054E00048EA040849EA0509CE7C350A340648EA48
:1054F000040849EA05090F7D48EA020849EA070954
:105500004E7D350248EA020849EA05098E7D3504D8
:1055100048EA020849EA0509CE7D350642EA080450
:1055200045EA0905C0E9084501F118030E7E002788
:1055300093F8018000254FEA082434433D4393F853
:10554000028000274FEA084634433D4393F8038026
:105550004FEA18274FEA086634433D431F79144346
:105560003D4393F805804FEA082714433D4393F8E1
:1055700006804FEA084714433D4393F807804FEAFB
:10558000086714433D43C0E90C451E7A002793F891
:10559000098000254FEA082426432F4393F80A8008
:1055A00000254FEA084426432F4393F80B804FEA27
:1055B00018254FEA086426432F431D7B16432F43CB
:1055C00093F80D804FEA0825144634433D4393F881
:1055D0000E804FEA084714433D4393F80F804FEA8B
:1055E000086714433D43C0E90E451E7C002793F82D
:1055F000118000254FEA082426432F4393F8128098
:1056000000254FEA084426432F4393F813804FEABE
:1056100018254FEA086426432F431D7D16432F4368
:1056200093F815804FEA0825144634433D4393F818
:1056300016804FEA084714433D4393F817804FEA1A
:10564000086714433D43C0E910451E7E002793F8C8
:10565000198000254FEA082426432F4393F81A8027
:1056600000254FEA084426432F4393F81B804FEA56
:1056700018254FEA086426432F431D7F16432F4306
:1056800093F81D804FEA082516432F4393F81E8098
:105690004FEA0845144634433D4393F81F804FEAD0
:1056A000086714433D43C0E912453820BDE8F08344
:1056B0002DE9F04300F1080E0C7800254E78002308
:1056C000320214431D438E780023320414431D43D9
:1056D000CE78330A320614431D4300220B7914435B
:1056E0001D4391F805804FEA082744EA020845EA7D
:1056F00007098E79350448EA020849EA0509CE7996
:10570000350642EA080445EA0905C0E9044591F86E
:1057100008804FF000094E7A0025340248EA040858
:1057200049EA05098E7A0025340448EA040849EA62
:105730000509CE7A350A340648EA040849EA05091B
:105740000F7B48EA020849EA07094E7B350248EA1E
:10575000020849EA05098E7B350448EA020849EA4D
:105760000509CE7B350642EA080445EA0905C0E989
:10577000064591F810804FF000094E7C0025340258
:1057800048EA040849EA05098E7C0025340448EA01
:10579000040849EA0509CE7C350A340648EA0408BB
:1057A00049EA05090F7D48EA020849EA07094E7DE2
:1057B000350248EA020849EA05098E7D350448EABF
:1057C000020849EA0509CE7D350642EA080445EAA1
:1057D0000905C0E9084501F118030E7E002793F87A
:1057E000018000254FEA082434433D4393F80280AA
:1057F00000274FEA084634433D4393F803804FEABD
:1058000018274FEA086634433D431F7914433D434C
:1058100093F805804FEA082714433D4393F8068028
:105820004FEA084714433D4393F807804FEA08675F
:1058300014433D43C0E90C451E7A002793F80980C4
:1058400000254FEA082426432F4393F80A800025B9
:105850004FEA084426432F4393F80B804FEA18255C
:105860004FEA086426432F431D7B16432F4393F8CA
:105870000D804FEA0825144634433D4393F80E80CB
:105880004FEA084714433D4393F80F804FEA0867F7
:1058900014433D43C0E90E451E7C002793F8118058
:1058A00000254FEA082426432F4393F81280002551
:1058B0004FEA084426432F4393F813804FEA1825F4
:1058C0004FEA086426432F431D7D16432F4393F868
:1058D00015804FEA0825144634433D4393F816805B
:1058E0004FEA084714433D4393F817804FEA08678F
:1058F00014433D43C0E910451E7E002793F81980EC
:1059000000254FEA082426432F4393F81A800025E8
:105910004FEA084426432F4393F81B804FEA18258B
:105920004FEA086426432F431D7F16432F4393F805
:105930001D804FEA082516432F4393F81E804FEA37
:105940000845144634433D4393F81F804FEA0867E7
:1059500014433D43C0E912453820BDE8F0832DE9EA
:10596000F04F8FB004468C460E7800274A78904658
:10597000002345462A0232433B438D7800272E04FC
:1059800042EA060843EA0709CE78330A320648EAB3
:10599000020849EA030900250E7948EA050749EAA1
:1059A0000608C146B8464E79330247462F4349EAB6
:1059B0000308C146B8468E79330447462F4349EA67
:1059C0000308C146B846CE79330647462F4349EA15
:1059D00003083A464346C4E906230E7A00274A7A6A
:1059E0009046002341460A0232433B439CF80A702A
:1059F000B846002741460E0442EA060843EA070972
:105A00009CF80B60330A320648EA020849EA0309A7
:105A10009CF80C7048EA050849EA07099CF80D60F3
:105A2000330248EA050849EA03099CF80E6033048A
:105A300048EA050849EA03099CF80F60330648EA7A
:105A4000050849EA030942464B46C4E908239CF885
:105A5000106000279CF811209046002341460A025E
:105A600032433B439CF81270B846002741460E046F
:105A700042EA060843EA07099CF81360330A320633
:105A800048EA020849EA03099CF8147048EA050844
:105A900049EA07099CF81560330248EA050849EA13
:105AA00003099CF81660330448EA050849EA03092B
:105AB0009CF81760330648EA050849EA030942469C
:105AC0004B46C4E90A230CF118039CF81810002275
:105AD00088469146597800270E0241464A4631438E
