:020000040800F2
:10000000005000203D500008C54E0008C74E0008B3
:10001000C94E0008CB4E0008CD4E0008000000007D
:10002000000000000000000000000000CF4E0008AB
:10003000D14E000800000000D34E0008D54E000845
:10004000855000088550000885500008855000083C
:10005000855000088550000885500008855000082C
:10006000855000088550000885500008855000081C
:100070008550000885500008DD4E0008ED4E000850
:1000800085500008855000088550000885500008FC
:1000900085500008855000088550000885500008EC
:1000A00085500008855000088550000885500008DC
:1000B00085500008855000088550000885500008CC
:1000C00085500008855000088550000885500008BC
:1000D00085500008FD4E00080D4F0008514F0008E4
:1000E0008550000885500008855000080000000079
:1000F0000000000000000000000000000000000000
:0C01000000000000000000005FF808F1A3
:10010C0010B5054C237833B9044B13B10448AFF345
:10011C0000800123237010BD10050020000000009A
:10012C00D05D000808B5034B1BB103490348AFF37E
:10013C00008008BD0000000014050020D05D000800
:10014C0010F8012B11F8013B012A28BF9A42F7D075
:10015C00D01A7047034613F8012B002AFBD1181A4A
:10016C000138704781F0004102E000BF83F000438A
:10017C0030B54FEA41044FEA430594EA050F08BF36
:10018C0090EA020F1FBF54EA000C55EA020C7FEAFA
:10019C00645C7FEA655C00F0E2804FEA5454D4EB77
:1001AC005555B8BF6D420CDD2C4480EA020281EA41
:1001BC00030382EA000083EA010180EA020281EA79
:1001CC000303362D88BF30BD11F0004F4FEA0131CB
:1001DC004FF4801C4CEA113102D0404261EB4101DA
:1001EC0013F0004F4FEA03334CEA133302D0524260
:1001FC0063EB430394EA050F00F0A780A4F101041C
:10020C00D5F1200E0DDB02FA0EFC22FA05F2801855
:10021C0041F1000103FA0EF2801843FA05F359413B
:10022C000EE0A5F120050EF1200E012A03FA0EFCBA
:10023C0028BF4CF0020C43FA05F3C01851EBE371E4
:10024C0001F0004507D54FF0000EDCF1000C7EEB01
:10025C0000006EEB0101B1F5801F1BD3B1F5001F3F
:10026C000CD349085FEA30004FEA3C0C04F101045E
:10027C004FEA445212F5800F80F09A80BCF1004F87
:10028C0008BF5FEA500C50F1000041EB045141EA09
:10029C00050130BD5FEA4C0C404141EB010111F40A
:1002AC00801FA4F10104E9D191F0000F04BF0146B5
:1002BC000020B1FA81F308BF2033A3F10B03B3F193
:1002CC0020020CDA0C3208DD02F1140CC2F10C0223
:1002DC0001FA0CF021FA02F10CE002F11402D8BF81
:1002EC00C2F1200C01FA02F120FA0CFCDCBF41EA4D
:1002FC000C019040E41AA2BF01EB0451294330BD1C
:10030C006FEA04041F3C1CDA0C340EDC04F11404F8
:10031C00C4F1200220FA04F001FA02F340EA0300CF
:10032C0021FA04F345EA030130BDC4F10C04C4F115
:10033C00200220FA02F001FA04F340EA03002946F5
:10034C0030BD21FA04F0294630BD94F0000F83F43F
:10035C00801306BF81F480110134013D4EE77FEA22
:10036C00645C18BF7FEA655C29D094EA050F08BF6E
:10037C0090EA020F05D054EA000C04BF194610464F
:10038C0030BD91EA030F1EBF0021002030BD5FEA93
:10039C00545C05D14000494128BF41F0004130BDBB
:1003AC0014F580043CBF01F5801130BD01F000450F
:1003BC0045F0FE4141F470014FF0000030BD7FEA82
:1003CC00645C1ABF194610467FEA655C1CBF0B467D
:1003DC00024650EA013406BF52EA033591EA030F94
:1003EC0041F4002130BD00BF90F0000F04BF00218C
:1003FC00704730B54FF4806404F132044FF00005BF
:10040C004FF0000150E700BF90F0000F04BF002137
:10041C00704730B54FF4806404F1320410F000459D
:10042C0048BF40424FF000013EE700BF42004FEA98
:10043C00E2014FEA31014FEA02701FBF12F07F4315
:10044C0093F07F4F81F06051704792F0000F14BF12
:10045C0093F07F4F704730B54FF4607401F0004556
:10046C0021F0004120E700BF50EA010208BF7047AD
:10047C0030B54FF000050AE050EA010208BF7047A2
:10048C0030B511F0004502D5404261EB41014FF40B
:10049C00806404F132045FEA915C3FF4DCAE4FF00F
:1004AC0003025FEADC0C18BF03325FEADC0C18BFF6
:1004BC00033202EBDC02C2F1200300FA03FC20FA47
:1004CC0002F001FA03FE40EA0E0021FA02F1144494
:1004DC00C1E600BF70B54FF0FF0C4CF4E06C1CEAA9
:1004EC0011541DBF1CEA135594EA0C0F95EA0C0F1E
:1004FC0000F0DEF82C4481EA030621EA4C5123EA91
:10050C004C5350EA013518BF52EA033541F48011BF
:10051C0043F4801338D0A0FB02CE4FF00005E1FB72
:10052C0002E506F00042E0FB03E54FF00006E1FBBC
:10053C0003569CF0000F18BF4EF0010EA4F1FF04FF
:10054C00B6F5007F64F5407404D25FEA4E0E6D413F
:10055C0046EB060642EAC62141EA55514FEAC52050
:10056C0040EA5E504FEACE2EB4F1FD0C88BFBCF5CC
:10057C00E06F1ED8BEF1004F08BF5FEA500E50F17D
:10058C00000041EB045170BD06F0004646EA010143
:10059C0040EA020081EA0301B4EB5C04C2BFD4EB75
:1005AC000C0541EA045170BD41F480114FF0000E6E
:1005BC00013C00F3AB8014F1360FDEBF002001F0DC
:1005CC00004170BDC4F10004203C35DA0C341BDC56
:1005DC0004F11404C4F1200500FA05F320FA04F028
:1005EC0001FA05F240EA020001F0004221F000415C
:1005FC0010EBD37021FA04F642EB06015EEA430ECF
:10060C0008BF20EAD37070BDC4F10C04C4F12005FE
:10061C0000FA04F320FA05F001FA04F240EA0200B1
:10062C0001F0004110EBD37041F100015EEA430E82
:10063C0008BF20EAD37070BDC4F1200500FA05F2A2
:10064C004EEA020E20FA04F301FA05F243EA020321
:10065C0021FA04F001F0004121FA04F220EA020030
:10066C0000EBD3705EEA430E08BF20EAD37070BD76
:10067C0094F0000F0FD101F00046400041EB010156
:10068C0011F4801F08BF013CF7D041EA060195F038
:10069C00000F18BF704703F00046520043EB0303F2
:1006AC0013F4801F08BF013DF7D043EA06037047DF
:1006BC0094EA0C0F0CEA135518BF95EA0C0F0CD0EA
:1006CC0050EA410618BF52EA4306D1D181EA030130
:1006DC0001F000414FF0000070BD50EA410606BF2A
:1006EC001046194652EA430619D094EA0C0F02D16F
:1006FC0050EA013613D195EA0C0F05D152EA0336B4
:10070C001CBF104619460AD181EA030101F00041D1
:10071C0041F0FE4141F470014FF0000070BD41F01A
:10072C00FE4141F4780170BD70B54FF0FF0C4CF4F4
:10073C00E06C1CEA11541DBF1CEA135594EA0C0F13
:10074C0095EA0C0F00F0A7F8A4EB050481EA030E60
:10075C0052EA03354FEA013100F088804FEA033347
:10076C004FF0805545EA131343EA12634FEA022215
:10077C0045EA111545EA10654FEA00260EF00041D6
:10078C009D4208BF964244F1FD0404F5407402D228
:10079C005B084FEA3202B61A65EB03055B084FEAB9
:1007AC0032024FF480104FF4002CB6EB020E75EBB6
:1007BC00030E22BFB61A754640EA0C005B084FEADE
:1007CC003202B6EB020E75EB030E22BFB61A75465B
:1007DC0040EA5C005B084FEA3202B6EB020E75EBA6
:1007EC00030E22BFB61A754640EA9C005B084FEA1E
:1007FC003202B6EB020E75EB030E22BFB61A75462B
:10080C0040EADC0055EA060E18D04FEA051545EA19
:10081C0016754FEA06164FEAC30343EA52734FEAC2
:10082C00C2025FEA1C1CC0D111F4801F0BD141EA3B
:10083C0000014FF000004FF0004CB6E711F4801FA0
:10084C0004BF01430020B4F1FD0C88BFBCF5E06F80
:10085C003FF6AFAEB5EB030C04BFB6EB020C5FEA90
:10086C00500C50F1000041EB045170BD0EF0004EE5
:10087C004EEA113114EB5C04C2BFD4EB0C0541EA17
:10088C00045170BD41F480114FF0000E013C90E614
:10089C0045EA060E8DE60CEA135594EA0C0F08BFD8
:1008AC0095EA0C0F3FF43BAF94EA0C0F0AD150EAD7
:1008BC0001347FF434AF95EA0C0F7FF425AF10466A
:1008CC0019462CE795EA0C0F06D152EA03353FF492
:1008DC00FDAE1046194622E750EA410618BF52EA0F
:1008EC0043067FF4C5AE50EA41047FF40DAF52EAE3
:1008FC0043057FF4EBAE12E74FEA4102B2F1E0435D
:10090C0024BFB3F5001CDCF1FE5C0DD901F0004CEA
:10091C004FEAC0024CEA5070B2F1004F40EB83003A
:10092C0008BF20F00100704711F0804F21D113F166
:10093C003872BCBF01F00040704741F480114FEA9F
:10094C005252C2F11802C2F1200C10FA0CF320FA28
:10095C0002F018BF40F001004FEAC1234FEAD32345
:10096C0003FA0CFC40EA0C0023FA02F34FEA4303AF
:10097C00CCE77FEA625307D150EA01331EBF4FF038
:10098C00FE4040F44000704701F0004040F0FE4053
:10099C0040F40000704700BF4FF0FF3C06E000BF82
:1009AC004FF0010C02E000BF4FF0010C4DF804CDEC
:1009BC004FEA40024FEA41037FEA226C18BF7FEAFC
:1009CC00236C11D001B052EA530C18BF90EA010FFE
:1009DC0058BFB2EB030088BFC81738BF6FEAE1708D
:1009EC0018BF40F0010070477FEA226C02D15FEA29
:1009FC00402C05D17FEA236CE4D15FEA412CE1D095
:100A0C005DF8040B704700BF844608466146FFE75B
:100A1C000FB5FFF7C9FF002848BF10F1000F0FBD3D
:100A2C004DF808EDFFF7F4FF0CBF012000205DF836
:100A3C0008FB00BF4DF808EDFFF7EAFF34BF0120BB
:100A4C0000205DF808FB00BF4DF808EDFFF7E0FF54
:100A5C0094BF012000205DF808FB00BF4DF808EDA5
:100A6C00FFF7D2FF94BF012000205DF808FB00BF08
:100A7C004DF808EDFFF7C8FF34BF012000205DF8EA
:100A8C0008FB00BF03685A004CBF43F0004323F03F
:100A9C0000431844704700BF61B32DE9F84F01F1D2
:100AAC00FF3A90460646D146002707EB090404EBB3
:100ABC00D4746410E50071190846FFF7E3FFA245F2
:100ACC00834605F10800304409D0FFF7DBFFC3452E
:100ADC0000F1FF3005D8404509D2671CE5E7C34556
:100AEC0005D9A74202D004F1FF39DEE70021084600
:100AFC00BDE8F88F08467047012807D0022807D0B8
:100B0C00044B00280CBF1846002070470248704761
:100B1C000248704715120008191200081D1200082F
:100B2C0030B5254B83B004468D1E73B301A92846FE
:100B3C00AFF3008018B301992A46FFF7ADFF0146C9
:100B4C00E8B1FFF79FFF4B68A064012B11D0002B7D
:100B5C0022DB081DFFF796FF0023E0642365036882
:100B6C00002B1EDBFFF78EFF00232061184603B01D
:100B7C0030BD052300221846226103B030BD092385
:100B8C0000221846226103B030BD0C4B0C491846AC
:100B9C00C91AC9100191CFE70123081DE064236530
:100BAC00DDE7C3F30360FFF7A7FF0028206114BF44
:100BBC0000230923DAE700BF000000005C63000893
:100BCC00BC640008036810B5DA07044606D49B071A
:100BDC0000F1480009D500F057FC2368590709D5E6
:100BEC001A070ED5DB0613D510BD00F045FC2368A3
:100BFC005907F5D404F1D00000F04EFC23681A0715
:100C0C00F0D404F5A87000F04FFC2368DB06EBD49D
:100C1C0004F5E870BDE8104000F08ABC036803B12D
:100C2C0003441846704700BF09207047704700BF47
:100C3C0070B504460D4608E02A6C236962612146B2
:100C4C002A4601209847082808D1296C2046FFF72E
:100C5C0067FF06460028EFD005F068F80728FBD19F
:100C6C003046296CFFF7E2FF281D00F0F9FB00BFAE
:100C7C002DE9F04705460027ADF5727D03AC0E1D3E
:100C8C0092460FCE0FC40FCE0FC40FCE0FC496E8F2
:100C9C000F00D5F80C80D5F8189084E80F0002AC42
:100CAC002846216C2760FFF73BFFBAF1000F07467F
:100CBC0014BF0A2609267FB1A36B46F010018DE8FC
:100CCC0010022A46636401202B46C04778BB384685
:100CDC000DF5727DBDE8F087236C4FF4F0726B61FB
:100CEC0021467AA804F03AFD2B697AAA29463046A7
:100CFC009847889B82468DE81002314663642A46E9
:100D0C002B460120C04790B94FF4F0727AA92046C7
:100D1C0004F024FDBAF1080F06D1216C2846FFF728
:100D2C00FFFE09260746C6E7BAF1070F05D00927CB
:100D3C0038460DF5727DBDE8F0873846216CFFF71B
:100D4C0075FF03A800F08CFB406C7047F0B54FF0BA
:100D5C00FF3ECB6BF9B00B640E1D01AD0F46044684
:100D6C000FCE0FC50FCE0FC50FCE0FC596E80F00D7
:100D7C0085E80F00CDF800E006E023696A462146BD
:100D8C0098470828054608D110992046FFF7C8FE59
:100D9C000028F2D0092079B0F0BD6846FFF712FFA9
:100DAC00062DF7D139462046FFF742FF30B4DD6BF4
:100DBC00C160826119461D64002230BC58E700BF37
:100DCC0070B54369C6680B6426B10122FFF750FF6A
:100DDC0004F0ACFF03690A4604460D4601460220A6
:100DEC009847072807D0082803D129462046FFF743
:100DFC001FFF04F09BFF3046296CFFF717FF281DDF
:100E0C0000F02EFBC2682AB110B4CC6B00220C642B
:100E1C0010BC2DE79AE700BF704700BF836813B181
:100E2C00014601201847704700B5042907D8DFE8B0
:100E3C0001F00309060909000BB90F2A05D9022094
:100E4C005DF804FB01205DF804FB00EB82025268A4
:100E5C001846019B1A605DF804FB00BF002310B517
:100E6C0084B003AC0A4600941946FFF7DDFF0398E3
:100E7C0004B010BD00B5042907D8DFE801F0030960
:100E8C00060909000BB90F2A05D902205DF804FBED
:100E9C0001205DF804FB019900EB820209681846F9
:100EAC0051605DF804FB00BF002310B584B004ACA6
:100EBC0044F8042D00940A461946FFF7DBFF04B0F2
:100ECC0010BD00BFF0B54FF0FF3ED36BADF50F7DFD
:100EDC001364151D17AC07460E460FCD0FC40FCD6E
:100EEC000FC40FCD0FC495E80F0084E80F00CDF8A8
:100EFC0058E012E00C2116A86A46FFF7D5FF3146E0
:100F0C0016A8B84778B9049B16AA694608209847D2
:100F1C000528044608D0092805D026996846FFF70D
:100F2C00FFFD0028E6D0092416A8FFF74BFE20464B
:100F3C000DF50F7DF0BD00BF2DE9F04FCC6C914647
:100F4C0022688BB004340D460792089400F0030B12
:100F5C001E46002B60D10323120207928DF82560E8
:100F6C008DF824302B6DBBF1020F08BFAC6B13F066
:100F7C00010340D1019300F008030393D4F80080DF
:100F8C00B8F1000F39D0022E43D0B4F80080678836
:100F9C000434AB6C27F0010A0F2148469A44FFF742
:100FAC005DFF824533D828F001039A4450452CBF8D
:100FBC00002001207F0007F0020708F0010847EA33
:100FCC000807012F3ED035D3022F1CD1236823F004
:100FDC0000420292BBF1000F76D128B1039900298F
:100FEC007ED0002A00F0A680002B77DB029B013319
:100FFC0004EB8304C2E700230193022E3EDDFFF7CE
:10100C0013FE002840D009200BB0BDE8F08F002063
:10101C00D0E767680834BCE7022BA3DC0221130C71
:10102C008DF825301204DBB204EB830407928DF8A3
:10103C00241097E7BBF1000F02D0002840F0BD80D0
:10104C0004349BE7BBF1000F25D1A8B194E80C0048
:10105C00991C4FEAD272D6D005F158010133069192
:10106C0000F0A380201DFFF7D9FD06AB01462846F2
:10107C00AFF30080002877D108347FE707A94846F2
:10108C0000F0F0FA0028BED1019B002B5CD10820A7
:10109C000BB0BDE8F08F0D2148462F6AFFF7DEFE3E
:1010AC008742E9D1AB6A9C42E6D12046FFF7EAFCC5
:1010BC000F2102464846FFF7F7FE48462A46002114
:1010CC00FFF7F2FE07209FE70D2148462F6AFFF736
:1010DC00C5FE874258D02368002B87DA043485E795
:1010EC00029B3BB305F15803271DCDF810B0DDF87A
:1010FC000C80A346DDF808A01C46059602E0B2451C
:10110C00B04616D038460694FFF788FD06AB01466C
:10111C0000222846AFF3008008F1010604370028AE
:10112C00EDD0029B5C464345DDF810B0059ED2D154
:10113C0000E05C4648460D21FFF790FE069B2862B6
:10114C00AC626B6206205FE70F214846FFF786FE14
:10115C000E2102464846FFF7A7FE4846294A0F21B2
:10116C00FFF7A2FE07204FE707460D214846FFF781
:10117C0075FE022F28621DD12B46069A43F82C2FA0
:10118C006B62AC6206203FE7AB6A9C42A3D104229F
:10119C0000270299A318A962EF622A636B63236884
:1011AC00BB421DDB0123019320E748460D21FFF7CD
:1011BC0055FE2862069B6B62E3E72046FFF762FC54
:1011CC0004340646AC632846AFF3008000283FF495
:1011DC001AAF484632460F21FFF766FE072013E789
:1011EC000846013004EB8000FFF74CFC0F2102464F
:1011FC004846FFF759FE48462A463946FFF754FE43
:10120C00072001E700000000002395E6012393E688
:10121C00022391E6F0B50446C5B004290DD8DFE8E9
:10122C0001F055030C310F00012B4FEA124695B219
:10123C0064D17219102A40F29D80022045B0F0BD95
:10124C00002BFAD1102AF8D82368D80600F1C880F0
:10125C0022AE30460192012500F074F90023A06BF8
:10126C00019A05FA03F1114203D00168043046F8E3
:10127C0023100133042BF4D1A063304600F058F94D
:10128C000020DBE7032BD8D1150C97B2EB19102BF0
:10129C00D3D823681E0700F1B78022AE304600F089
:1012AC0025F9ED00A06B5FB1043D0346711900EB0D
:1012BC00C70053F8042B834241F8042FF9D1184688
:1012CC00A063304600F0F0F80020B7E7002BB4D153
:1012DC000127A56B96B2201D07FA03F1314203F1E9
:1012EC00010302D0296804350160102B00F10400C1
:1012FC00F2D112F400503BD1A5639FE7052B9CD192
:10130C007719202F99D80F2E66D92F46002D3AD158
:10131C002A460027002AA06B72DD00EBC2020146B0
:10132C0044A800EBC6008C3851F8045B914240F89D
:10133C00045FF9D1084697B1102E324638BF1022FF
:10134C0044A901EBC202A2F5C4727900043A00EB85
:10135C00810150F8045B884242F8045FF9D1012BFB
:10136C0048D00F2EA16333D917B102A800F094F81E
:10137C00002063E70F2E3FF660AF00272268D107ED
:10138C0017D4002F60D02268510745D4012B4DD0C3
:10139C000F2E06D822A8019300F07AF8019B002F9B
:1013AC00B6D002A8019300F07BF8019BC6F11002A5
:1013BC00B0E722F00101052B2160019320463BD0C0
:1013CC0022F0030240F8482B00F05AF8019BD8E7B2
:1013DC0022A800F059F8C7E7102FCED9103FCDE75F
:1013EC0023F01003236004F5E870019200F0AAF8D2
:1013FC00019A2DE70431A16322A800F03DF8B7E76C
:10140C00002F99D10146AAE723F00803236004F5C5
:10141C00A87000F06BF840E7204622F0040240F878
:10142C00D02B019300F03CF8019BAFE722A801936D
:10143C0000F026F8019BB9E741F0020140F8481B87
:10144C0000F026F8019B9CE7012B03D00F2E3FF6F2
:10145C005FAF9FE722A8019300F012F8019B57E7BA
:10146C0000F1340191E838009C46A6464CF8045D26
:10147C0090E8FF0FE54600BD90EC210B704700BFD4
:10148C0080EC210B704700BF90EC200B704700BF25
:10149C0080EC200B704700BFD0EC200B704700BFD6
:1014AC00C0EC200B704700BFF0EC0201F0EC021115
:1014BC00F0EC0221F0EC0231F0EC0241F0EC0251C4
:1014CC00F0EC0261F0EC0271F0EC0281F0EC0291B4
:1014DC00F0EC02A1F0EC02B1F0EC02C1F0EC02D1A4
:1014EC00F0EC02E1F0EC02F1704700BFE0EC02011D
:1014FC00E0EC0211E0EC0221E0EC0231E0EC024104
:10150C00E0EC0251E0EC0261E0EC0271E0EC0281F3
:10151C00E0EC0291E0EC02A1E0EC02B1E0EC02C1E3
:10152C00E0EC02D1E0EC02E1E0EC02F1704700BF2C
:10153C00B0FC0181B0FC0191B0FC01A1B0FC01B187
:10154C00704700BFA0FC0181A0FC0191A0FC01A18F
:10155C00A0FC01B1704700BFEC4600B52DE900506E
:10156C002DE9FF1F4FF000032DE90C0001A9FFF737
:10157C00EDFBDDF840E012B0704700BFEC4600B563
:10158C002DE900502DE9FF1F4FF000032DE90C0051
:10159C0001A9FFF715FCDDF840E012B0704700BF61
:1015AC00EC4600B52DE900502DE9FF1F4FF000036C
:1015BC002DE90C0001A9FFF725FCDDF840E012B085
:1015CC00704700BFEC4600B52DE900502DE9FF1F18
:1015DC004FF000032DE90C0001ABFFF7E7FBDDF842
:1015EC0040E012B0704700BFEC4600B52DE900504A
:1015FC002DE9FF1F4FF000032DE90C0001AAFFF7A6
:10160C0061FCDDF840E012B0704700BF027A1AB9F5
:10161C00437A43B9B02070470368013A02721A0248
:10162C000260180E704703214268013B10B44372EC
:10163C001368141D01721A024460026010BC180E6B
:10164C00704700BF002300B585B003AA009219466D
:10165C000C22FFF7E9FB039805B05DF804FB00BF13
:10166C00F0E700BF2DE9F04306460F464FF00008A7
:10167C0085B03846FFF7CAFFB028044623D00506CC
:10168C0027D400230DF10C09194685000D22CDF845
:10169C0000903046FFF7C8FBEDB2039B600605F1E6
:1016AC0004054CBF5D1BED1800230D221946CDF827
:1016BC00009030460395FFF7DDFB3846FFF7A6FF99
:1016CC00B0280446DBD1B8F1000F00F09480002064
:1016DC001CE000F0F003802B5CD0902B19D0A02BD9
:1016EC002CD0B02B3ED0C02B6BD000F0F803D02BFD
:1016FC000BD100F00702013242F400220523012134
:10170C003046FFF787FD0028B3D0092005B0BDE8AF
:10171C00F08300F00D030D2BF7D0002303AD00F088
:10172C000F02194600953046FFF77EFB002300950B
:10173C0019460D223046FFF79DFB9AE7C3434FF441
:10174C007F6203F007031A410023010702F47F6252
:10175C0048BF42F4804219463046FFF75BFD002833
:10176C00D3D186E7B12857D0B22868D0B32800F07F
:10177C00958000F0FC03B42BC7D0012300F00702C6
:10178C001A4442F4002219463046FFF743FD002864
:10179C00BBD16EE73846FFF739FF24020443B4F59A
:1017AC00004FB2D000232401A2B219463046FFF7F5
:1017BC0031FD0028A9D114F4004F18BF4FF00108D7
:1017CC0057E7C6287DD0C72800F0868000F0F803C4
:1017DC00C02B00F09480C82800F09F80C92894D1B9
:1017EC003846FFF713FF020300F00F0002F47022DB
:1017FC000130024382E703AC43460E22414600947B
:10180C003046FFF711FB0094304643460F22414609
:10181C00FFF730FB404679E73846FFF7F7FE002824
:10182C003FF473AF10F0F0037FF46FAF024619462C
:10183C003046FFF7EFFC00287FF467AF19E7002371
:10184C000DF10C090D221946CDF800903046FFF72A
:10185C00EBFA3846FFF7DAFE02064FF002040CD51D
:10186C00039B00F07F00A040034438460393FFF72E
:10187C00CDFE030604F10704F2D40023039900F013
:10188C007F02A24001F501718C18CDF80090194629
:10189C000D2230460394FFF7EDFAEAE63846FFF7DF
:1018AC00B5FE0123010300F00F0001F47021C218F2
:1018BC000A4330461946FFF7ADFC00287FF425AFEC
:1018CC00D7E63846FFF7A2FE010300F00F00032312
:1018DC0001F47021421CEBE73846FFF797FE002815
:1018EC003FF413AF10F0F0037FF40FAF0246042166
:1018FC003046FFF78FFC00287FF407AFB9E60323CF
:10190C0000F00F02013242F4202219463046FFF754
:10191C0081FC00287FF4F9AEABE63846FFF776FE83
:10192C0000F0F00200F00F031032013343EA0232F0
:10193C00E4E600BF30B503240D46C36C85B05A688D
:10194C008DF80C40DC791202083301A9284601926B
:10195C008DF80D400293FFF785FE05B030BD00BF3A
:10196C0008B5FFF77DFE806C08BD00BF08B5FFF71A
:10197C0077FEC06CC37900EB8300083008BD00BF54
:10198C0008B504F0D3F900BF08B5FFF7F9FF00BFA5
:10199C0010B504460E4B18784FF47A73B3FBF0F382
:1019AC000C4A1068B0FBF3F000F08EF868B90F2CFD
:1019BC0001D9012010BD002221464FF0FF3000F06C
:1019CC0043F8054B1C60002010BD012010BD00BF6A
:1019DC0000000020080000200400002008B5074A81
:1019EC00136843F010031360032000F01BF8002071
:1019FC00FFF7CEFF03F052F9002008BD0020024093
:101A0C00034A1168034B1B780B441360704700BFEB
:101A1C008828002000000020014B1868704700BF88
:101A2C0088280020074AD36823F4E0631B041B0CAE
:101A3C00000200F4E060184340F0BF6040F4003056
:101A4C00D060704700ED00E030B4164BDB68C3F398
:101A5C000223C3F10704042C28BF04241D1D062DEA
:101A6C0017D9033B012505FA04F4013C21409940A8
:101A7C0005FA03F3013B1340194300280BDB090162
:101A8C00C9B200F1604000F5614080F8001330BC31
:101A9C0070470023E6E700F00F000901C9B2024BC2
:101AAC001954F4E700ED00E014ED00E0002808DB29
:101ABC00420900F01F00012303FA00F0014B43F828
:101ACC002200704700E100E00138B0F1807F0AD2BB
:101ADC00064B5860F021064A82F8231000209860CB
:101AEC0007221A6070470120704700BF10E000E029
:101AFC0000ED00E070B4C56B066C0124B4406C6062
:101B0C00046863604368102B05D003689960036810
:101B1C00DA6070BC704703689A600368D960F8E7B4
:101B2C0060B310B403460068154A02441549A1FB82
:101B3C000212120992001A64134ADA63022283F821
:101B4C002120016821F47F5121F030015A689C68F2
:101B5C002243DC6822431C6922435C6922439C6952
:101B6C002243DC6922430A4302600020986301226D
:101B7C0083F8212083F8200010BC704701207047A7
:101B8C00F8FFFDBFCDCCCCCC0000024038B590F8AE
:101B9C002040012C32D0012480F8204090F82140C4
:101BAC00012C04D0002380F82030022038BD0446DC
:101BBC00022084F821000020A0632568286820F00A
:101BCC00010028602046FFF795FFE36A5BB12268AD
:101BDC00136843F00E0313602268136843F001038B
:101BEC001360002038BD2268136823F004031360CF
:101BFC002268136843F00A031360EDE7022038BD36
:101C0C0008B590F82130022B03D004238363012004
:101C1C0008BD0268136823F00E0313600268136892
:101C2C0023F0010313600368194A934214D0143251
:101C3C0093421FD0143293421ED0143293421ED0C2
:101C4C00143293421ED01432934202D04FF0807261
:101C5C0003E04FF4801200E001220E4B5A60012386
:101C6C0080F82130002380F82030436B6BB198470B
:101C7C00002008BD1022F0E74FF48072EDE74FF41E
:101C8C008052EAE74FF48032E7E7002008BD00BF3E
:101C9C00080002400000024038B5C36B1A680468A3
:101CAC002568016C04238B401A4236D015F0040FC2
:101CBC0033D0236813F0200F03D1236823F00403DF
:101CCC0023600368434A934214D01432934219D0D0
:101CDC001432934218D01432934218D014329342D7
:101CEC0018D01432934202D04FF0806203E04FF4CC
:101CFC00800200E00422384B5A60C36A002B67D084
:101D0C00984738BD4022F6E74FF48062F3E74FF472
:101D1C008042F0E74FF48022EDE702238B401A4219
:101D2C003BD015F0020F38D0236813F0200F06D1EA
:101D3C00236823F00A032360012380F82130036811
:101D4C00244A934214D0143293421BD0143293423F
:101D5C001AD0143293421AD0143293421AD014323D
:101D6C00934202D04FF0007203E04FF4001200E0F7
:101D7C000222194B5A60002380F82030836A3BB34F
:101D8C00984738BD2022F4E74FF40072F1E74FF486
:101D9C000052EEE74FF40032EBE7082303FA01F1AF
:101DAC000A4215D015F0080F12D0236823F00E0349
:101DBC002360C16B026C012303FA02F24A60836355
:101DCC0080F82130002380F82030036B03B1984752
:101DDC0038BD00BF0800024000000240F0B583B0DF
:101DEC000026344671E0002D00F0A280012D00D1B8
:101DFC00CE68FF2B00F2B0808646FF2B00F2AF803E
:101E0C00A500DEF800200F27AF4022EA070206FAF1
:101E1C0005F52A43CEF800204A6812F0805F53D0B3
:101E2C00644A956945F001059561926902F00102D9
:101E3C000192019AA508AF1C5F4A52F8272004F0C2
:101E4C000307BF004FF00F0E0EFA07FE22EA0E0238
:101E5C00DFF874E1704500F089800EF5806E7045F6
:101E6C0000F087800EF5806E704500F085800EF5D1
:101E7C00806E704577D04FF0040E0EFA07F73A4398
:101E8C0002354D4F47F825204A6812F4803F76D032
:101E9C004A4D2A681A432A604A6812F4003F74D0EB
:101EAC00464D6A681A436A604A6812F4801F72D001
:101EBC00424DAA681A43AA604A6812F4001F70D0F7
:101ECC003E4DEA681343EB6001340B6833FA04F2BD
:101EDC006DD00122A24013409A42F5D14D68122DCB
:101EEC0030D00BD8022D2AD07FF67DAF032D2FD00A
:101EFC00112D7FF47EAFCE6804367AE7304FBD42A9
:101F0C0016D00CD92F4FBD4212D007F58037BD42E9
:101F1C000ED0A7F58017BD427FF46BAF08E0A7F594
:101F2C008017BD4204D007F58037BD427FF461AF06
:101F3C008D687DB1012D08D04261082659E7CE6825
:101F4C00083656E7CE680C3653E70261082650E790
:101F5C0000264EE704264CE700F1040E4DE7A4F1F1
:101F6C000805AD004DE74FF0030E86E74FF0000E6D
:101F7C0083E74FF0010E80E74FF0020E7DE70F4D27
:101F8C002A6822EA03022A6086E70C4D6A6822EA74
:101F9C0003026A6088E7094DAA6822EA0302AA6074
:101FAC008AE7064DEA6822EA0303EB608CE703B08C
:101FBC00F0BD00BF001002400000014000040140D1
:101FCC0000002110000031100008014012B9090472
:101FDC000161704701617047C3680B4201D1016117
:101FEC00704741617047000082B0084B1B68084A7B
:101FFC00A2FB03235B0A00FB03F0019000BF019BD3
:10200C005A1E0192002BF9D102B070470800002033
:10201C00D34D6210002800F0F58170B582B00446F3
:10202C00036813F0010F3DD0AB4B5B6803F00C035E
:10203C00042B2ED0A84B5B6803F00C03082B23D089
:10204C006368B3F5803F51D0002B55D103F1804329
:10205C0003F504331A6822F480321A601A6822F4E9
:10206C0080221A606368002B60D0FFF7D5FC054610
:10207C00994B1B6813F4003F14D1FFF7CDFC401BA8
:10208C006428F5D90320C2E1934B5B6813F4803FBD
:10209C00D6D0914B1B6813F4003F03D06368002B20
:1020AC0000F0B281236813F0020F65D08A4B5B6895
:1020BC0013F00C0F4ED0884B5B6803F00C03082B0D
:1020CC0043D02369002B79D00122844B1A60FFF78F
:1020DC00A3FC0546804B1B6813F0020F65D1FFF77C
:1020EC009BFC401B0228F5D9032090E17A4A136827
:1020FC0043F480331360B5E7B3F5A02F09D0764BCA
:10210C001A6822F480321A601A6822F480221A604B
:10211C00A8E703F18043A3F53C331A6842F480220C
:10212C001A601A6842F480321A609BE7FFF774FC5D
:10213C000546694B1B6813F4003FB3D0FFF76CFCEA
:10214C00401B6428F5D9032061E1634B5B6813F4F1
:10215C00803FB6D1604B1B6813F0020F04D023698B
:10216C00012B01D0012052E15B4A136823F0F803E4
:10217C00616943EAC1031360236813F0080F32D07E
:10218C00A369002B6ED00122554B1A60FFF744FC5B
:10219C000546514B5B6A13F0020F21D1FFF73CFC53
:1021AC00401B0228F5D9032031E14B4A136823F078
:1021BC00F803616943EAC1031360DDE70022474B72
:1021CC001A60FFF729FC0546434B1B6813F0020FFE
:1021DC00D2D0FFF721FC401B0228F5D9032016E1D1
:1021EC000120FFF701FF236813F0040F00F0988023
:1021FC00394BDB6913F0805F46D1374BDA6942F01B
:10220C008052DA61DB6903F080530193019B012555
:10221C00344B1B6813F4807F38D0E368012B49D012
:10222C00002B4DD103F1804303F504331A6A22F0DD
:10223C0001021A621A6A22F004021A62E368002B85
:10224C005CD0FFF7E9FB0646234B1B6A13F0020F29
:10225C0065D1FFF7E1FB801B41F288339842F3D93B
:10226C000320D4E000221E4B1A60FFF7D5FB054675
:10227C00194B5B6A13F0020FB5D0FFF7CDFB401B77
:10228C000228F5D90320C2E00025C1E7154A1368DE
:10229C0043F480731360FFF7BFFB0646114B1B68BA
:1022AC0013F4807FB9D1FFF7B7FB801B6428F5D9F5
:1022BC000320ACE0084A136A43F001031362BDE744
:1022CC00052B11D0044B1A6A22F001021A621A6A09
:1022DC0022F004021A62B1E70010024000004242F0
:1022EC0080044242007000404C4B1A6A42F00402D7
:1022FC001A621A6A42F001021A629FE7FFF78CFB1E
:10230C000646464B1B6A13F0020F08D0FFF784FBFE
:10231C00801B41F288339842F3D9032077E0E5B96A
:10232C00E369002B72D03D4A526802F00C02082A75
:10233C0056D0022B17D00022394B1A60FFF76CFBDA
:10234C000446364B1B6813F0007F47D0FFF764FB45
:10235C00001B0228F5D9032059E0304AD36923F039
:10236C008053D361DCE700222D4B1A60FFF754FB3E
:10237C0005462A4B1B6813F0007F06D0FFF74CFB79
:10238C00401B0228F5D9032041E0236AB3F5803FB6
:10239C001AD022494B6823F47413226A606A0243F0
:1023AC0013434B6001221E4B1A60FFF735FB0446AA
:1023BC001A4B1B6813F0007F0ED1FFF72DFB001B8F
:1023CC000228F5D9032022E0144A536823F4003381
:1023DC00A1680B435360DCE7002018E0002016E0F6
:1023EC00012B16D00D4B5B6803F48031226A9142AD
:1023FC0001D001200BE003F47013626A93420AD0FF
:10240C00012004E001207047012000E0002002B010
:10241C0070BD0120FBE70020F9E700BF001002406F
:10242C006000424210B586B0154C94E80F000DF1D7
:10243C00180E0EE90F00238AADF80430114B5B68BF
:10244C0003F00C02082A18D1C3F38342724412F829
:10245C00102C13F4803F03D10B4800FB02F00DE06D
:10246C00084B5B68C3F34043734413F8143C0748B0
:10247C0000FB02F0B0FBF3F000E0044806B010BD26
:10248C00E85D00080010024000093D0000127A00CF
:10249C00002800F0A38070B50446524B1B6803F073
:1024AC0007038B420CD24F4A136823F007030B43EC
:1024BC001360136803F00703994201D0012070BD2B
:1024CC00236813F0020F17D013F0040F04D0464A00
:1024DC00536843F4E0635360236813F0080F04D08F
:1024EC00414A536843F4605353603F4A536823F0A6
:1024FC00F003A068034353600D46236813F0010FEB
:10250C0031D06368012B20D0022B25D0364A1268BB
:10251C0012F0020F64D034494A6822F003021343CC
:10252C004B60FFF779FA06462F4B5B6803F00C0300
:10253C006268B3EB820F16D0FFF76EFA801B41F284
:10254C0088339842F0D9032070BD274A126812F4E0
:10255C00003FE0D1012070BD234A126812F0007FC9
:10256C00D9D1012070BD1F4B1B6803F007039D429E
:10257C000CD21C4A136823F007032B431360136817
:10258C0003F007039D4201D0012070BD236813F0B6
:10259C00040F06D0144A536823F4E063E1680B433C
:1025AC005360236813F0080F07D00F4A536823F4C5
:1025BC006053216943EAC1035360FFF733FF0A4BB1
:1025CC005B68C3F30313094AD35CD840084B18600B
:1025DC00084B1868FFF7DCF9002070BD012070472C
:1025EC00012070BD0020024000100240286200084B
:1025FC000800002004000020014B1868704700BF41
:10260C000800002008B5FFF7F7FF044B5B68C3F325
:10261C000223034AD35CD84008BD00BF001002401F
:10262C003862000808B5FFF7E7FF044B5B68C3F39B
:10263C00C223034AD35CD84008BD00BF001002403F
:10264C00386200080268D36823F0C003D3602023EB
:10265C0080F8393070470268D36823F49073D360E4
:10266C000268536923F001035361202380F83A3048
:10267C00704790F83930DBB2212B01D00220704723
:10268C008368B3F5805F17D00268036A591C016236
:10269C001B785360C38C9BB2013B9BB2C384DBB9E8
:1026AC000268D36823F08003D3600268D36843F0D8
:1026BC004003D36000207047036A02681B88C3F391
:1026CC000803536003691BB9036A02330362E1E731
:1026DC00036A01330362DDE70020704738B5044616
:1026EC000268136923F44053C1680B431361836878
:1026FC0002691343426913430168CA6822F4B05259
:10270C0022F00C021343CB600268536923F440732C
:10271C0081690B4353610268214B9A421FD0FFF72A
:10272C0071FF216800EB800000EB800063689B0068
:10273C00B0FBF3F01B4DA5FB00325409642202FBE5
:10274C00140213013233A5FB03235B0903F0F002DF
:10275C0002EB041203F00F0313448B6038BDFFF738
:10276C0061FF216800EB800000EB800063689B0038
:10277C00B0FBF3F00B4DA5FB00325409642202FBB5
:10278C00140213013233A5FB03235B0903F0F0029F
:10279C0002EB041203F00F0313448B6038BD00BF2F
:1027AC00003801401F85EB512DE9F04105460F46DD
:1027BC0016469846069C2B681B6837EA03030CBF29
:1027CC0001230023B3421ED1B4F1FF3FF3D02CB14F
:1027DC00FFF722F9A0EB08008442ECD22A68D368F8
:1027EC0023F4D073D3602A68536923F00103536137
:1027FC00202385F8393085F83A30002385F83830B5
:10280C000320BDE8F0810020BDE8F08158B310B57D
:10281C00044690F839300BB3242384F839302268FD
:10282C00D36823F40053D3602046FFF757FF226888
:10283C00136923F4904313612268536923F02A032C
:10284C0053612268D36843F40053D3600020E063E3
:10285C00202384F8393084F83A3010BD80F83830B1
:10286C0002F03EFAD8E7012070472DE9F04182B022
:10287C001E4690F83930DBB2202B04D002231846C8
:10288C0002B0BDE8F08104460D469046002955D0B3
:10289C00002A55D090F83830012B01D10223EEE7F5
:1028AC00012380F838300023C363212380F83930AA
:1028BC00FFF7B2F80746A4F82480A4F8268010E0AD
:1028CC0000963B46002280212046FFF76DFF002832
:1028DC0038D122682B88C3F3080353602369CBB922
:1028EC000235E38C9BB2BBB1E38C9BB2013B9BB238
:1028FC00E384A368B3F5805FE2D000963B460022E8
:10290C0080212046FFF750FFF0B923682A785A60DF
:10291C000135E6E70135E4E700963B46002240210D
:10292C002046FFF741FF034608B10323A7E7202207
:10293C0084F83920002284F83820A0E701239EE790
:10294C0001239CE703239AE7032398E738B590F813
:10295C003940E4B2202C01D0022038BD002931D0FE
:10296C00002A31D090F83830012B01D1022038BD2B
:10297C0013460446012280F8382001628384C38404
:10298C000025C563212280F83920026B0F48906224
:10299C00226B0F48D062226B0E481063226B55637A
:1029AC0022680432206BFFF7F1F823686FF04002C5
:1029BC001A6084F838502268536943F080035361DD
:1029CC00284638BD012038BD012038BD8D2A0008AD
:1029DC00D92A0008CD2B000830B583B090F83A40C6
:1029EC00E4B2202C02D0022003B030BD00293DD02F
:1029FC00002A3DD090F83830012B01D10220F3E7AA
:102A0C0013460A460446012180F8381082628385F9
:102A1C000025C563222180F83A10416B1548886265
:102A2C00616B1548C862616B14480863616B4D6338
:102A3C0021680431606BFFF7A9F8019523681A68C7
:102A4C0001925A680192019A84F83850DA6842F47B
:102A5C008072DA602268536943F001035361226883
:102A6C00536943F0400353612846BDE70120BBE79F
:102A7C000120B9E7E32A0008C12B0008CD2B000880
:102A8C0008B5436A0268126812F0200F0CD10022BC
:102A9C00DA8419684A6922F080024A611A68D3689C
:102AAC0043F04003D36008BD184601F0A9FC08BDF3
:102ABC0008B50168CB6823F04003CB60202380F875
:102ACC00393001F09DFC002008BD704708B5406A04
:102ADC00FFF7FBFF08BD08B5436A0268126812F0E5
:102AEC00200F13D10022DA851968CA6822F480728B
:102AFC00CA6019684A6922F001024A6119684A6978
:102B0C0022F040024A61202283F83A20184601F054
:102B1C0087FC08BD08B590F83A30DBB2222B01D007
:102B2C00022008BD8368B3F5805F0FD003690BBB2F
:102B3C00836A5A1C8262026852681A70C38D9BB2F7
:102B4C00013B9BB2C385F3B1002008BD826A0369C7
:102B5C0043B903685B68C3F308031380836A0233C9
:102B6C008362EBE703685B68DBB21380836A013333
:102B7C008362E3E7826A531C836203685B6803F039
:102B8C007F031370DAE70268D36823F02003D36065
:102B9C000268D36823F48073D3600268536923F00E
:102BAC0001035361202380F83A3001F039FC0020F6
:102BBC0008BD704708B5406AFFF7FBFF08BD7047BA
:102BCC0010B5446A23685A6994F83930DBB2212B6A
:102BDC0010D023685A6902F0400294F83A30DBB204
:102BEC00222B11D0E36B43F01003E3632046FFF775
:102BFC00E6FF10BD02F08002002AEAD00023E38435
:102C0C002046FFF71FFDE4E7002AEBD00023E38505
:102C1C002046FFF720FDE5E710B50446026813686F
:102C2C00D168526913F00F0005D113F0200F02D0B8
:102C3C0011F0200F53D1002867D012F0010202D1FD
:102C4C0011F4907F61D013F0010F06D011F4807F46
:102C5C0003D0E06B40F00100E06313F0040F04D0EC
:102C6C001AB1E06B40F00200E06313F0020F04D0E5
:102C7C001AB1E06B40F00400E06313F0080F04D0CD
:102C8C001AB1E26B42F00802E263E26B002A48D010
:102C9C0013F0200F02D011F0200F24D123685B69B0
:102CAC0003F04003E26B12F0080F00D13BB3204657
:102CBC00FFF7D1FC23685A6912F0400F1BD05A69F8
:102CCC0022F040025A61636B8BB11A4A5A63606BF3
:102CDC00FEF796FF28B3606B436B984710BD2046F8
:102CEC00FFF718FF10BD2046FFF714FFD6E720466C
:102CFC00FFF765FF10BD2046FFF761FF10BD2046B2
:102D0C00FFF75DFF0023E36310BD13F0800F02D0CB
:102D1C0011F0800F06D113F0400F02D011F0400FCC
:102D2C0004D110BD2046FFF7A4FC10BD2046FFF7D0
:102D3C00BFFEF6E7452D000808B5406A0023C385A1
:102D4C00C384FFF73CFF08BDF0B5074601240026FD
:102D5C002046334608E000F1010E013315540134CE
:102D6C00E4B2FF2C0BD070468B420DD2FD5C002DD3
:102D7C00F1D194550133064601300124F4E7945502
:102D8C00023076460124EFE79455F0BD03790B70C1
:102D9C0043794B7083798B70C379CB70037A0B7149
:102DAC00437A4B71837A8B71C37ACB71082070474D
:102DBC000B7843604A7843EA022343608A7843EAFB
:102DCC0002434360CA7843EA026343600B79836031
:102DDC004A7943EA022383608A7943EA0243836097
:102DEC00CA7943EA02638360082070470048704741
:102DFC001062000800487047EC61000870B40B7852
:102E0C0083804A7843EA0223838000242346032BE1
:102E1C0006D8CA189278DD00AA4014430133F6E7AD
:102E2C000623A21D934204D25A1ECD5C8D5401334D
:102E3C00F7E7053400230B554C1D84601E46032B0D
:102E4C0006D88C18E45CDD00AC4026430133F6E771
:102E5C00141D2346A219934204D25A1ECD5C8D54E4
:102E6C000133F7E7551E00234B55013C0C44C4605D
:102E7C001E46032B06D88C18E45CDD00AC402643C0
:102E8C000133F6E7043213469419A34204D25C1EB4
:102E9C00CD5C0D550133F7E7631E0025CD54013A87
:102EAC000A4402610B5D621C8A5C43EA0223A21C89
:102EBC008A5C43EA0243E21C8A5C43EA0263436194
:102ECC00201D70BC704700000048704794610008DA
:102EDC00004870477061000870B406460B780371A7
:102EEC0000221346032B07D8581C0C5CDB0004FA99
:102EFC0003F31A430346F5E70523501D834204D21E
:102F0C005C1ECD5C0D550133F7E7043200238B5466
:102F1C000431B16070BC7047004870475C610008B8
:102F2C00004870473861000800487047FC5D000895
:102F3C00004870471461000810B48268C3680A70B6
:102F4C00C2F307244C70C2F307448C70120ECA7083
:102F5C000B71C3F307224A71C3F307428A711B0E2C
:102F6C00CB71026943690A72C2F307244C72C2F333
:102F7C0007448C72120ECA720B73C3F307224A7386
:102F8C00C3F307428A731B0ECB738269C3690A743D
:102F9C00C2F307204874C2F307408874120ECA7437
:102FAC000B75C3F307224A75C3F307428A751B0ED0
:102FBC00CB75182010BC70472DE9F0030A7800235C
:102FCC004E780025340222432B438E78002534049E
:102FDC0022432B43CE78350A340622432B4300245C
:102FEC000D7922432B4391F805804FEA08272243A1
:102FFC003B4391F806804FEA084722433B4391F844
:10300C0007804FEA086722433B43C0E902230E7A4C
:10301C00002791F8098000234FEA082216431F432A
:10302C0091F80A8000234FEA084216431F4391F897
:10303C000B804FEA18234FEA086216431F430B7BA1
:10304C0026431F4391F80D804FEA082326431F4364
:10305C0091F80E804FEA084326431F4391F80F80E6
:10306C004FEA0863224632433B43C0E904230E7CFB
:10307C00002791F8118000234FEA082216431F43C2
:10308C0091F8128000234FEA084216431F4391F82F
:10309C0013804FEA18234FEA086216431F430B7D37
:1030AC0026431F4391F815804FEA082326431F43FC
:1030BC0091F816804FEA084326431F4391F8178076
:1030CC004FEA0863224632433B43C0E906231820EB
:1030DC00BDE8F0037047000000487047FC60000832
:1030EC0000487047D860000800487047C46000086A
:1030FC0000487047A060000841F2F403C05C7047C0
:10310C00012800D070474FF6FF739942FAD110B4E2
:10311C00454901F5805301221A70002341F2020245
:10312C008B5241F204028B5241F206028B523F4AFF
:10313C00A2F1EC0441F208000C503D4842F8AC0CF2
:10314C0042F8A81C41F2480153543A4841F25C0140
:10315C00505002F583510B6041F26801535041F21B
:10316C006C01535041F27401535041F278015350A9
:10317C0002F584521360182B09D803F206412B4A2E
:10318C0002EB8102002142F8AC1C0133F3E700236F
:10319C00182B09D803F21E41244A02EB81020021AC
:1031AC0042F8A81C0133F3E70023B3F5006F06D2F5
:1031BC001E4A1A44002102F8941C0133F5E700233F
:1031CC00B3F5006F06D2194A1A44002182F86C1725
:1031DC000133F5E70022154B43F8982C164B174A90
:1031EC0043F8702C164A43F8602C164A43F8582CB6
:1031FC000020002143E9140143E9120143E91001C5
:10320C0043F8382C43E90C0143E90A0143E908016E
:10321C000D4A43F8182C012243F8142C0B4A43F89E
:10322C00682C10BC6EE700BF30050020281600206B
:10323C007C600008346000082027002090600008A3
:10324C00646000084C6000087132000820620008BD
:10325C00C06D704700487047C46000080048704754
:10326C00A06000082DE9F047D0E9048900222B4B1F
:10327C0000F14001D1E90001FDF72CF906460F469B
:10328C0002460B4640464946FCF772FFFDF734FBFD
:10329C000546DFF890A04AF8100C42464B463046E3
:1032AC003946FCF763FFFDF727FB04464AF80C0C84
:1032BC004FF07E512846FDF7DBFB18B14FF07E52E4
:1032CC004AF8102C1649174B53F8100CFDF7B2FBAB
:1032DC00C8B94FF07E512046FDF7CAFB20B14FF024
:1032EC007E52104B43F80C2C0D490E4B53F80C0C22
:1032FC00FDF7A0FB60B900224FF400510A48FEF71D
:10330C0065FEBDE8F087064A064B43F8102CE0E753
:10331C00034A044B43F80C2CEDE700BF0000E03FE0
:10332C00000080BF202700200010014030B589B07C
:10333C00002404940594069407941D4B9A6942F05A
:10334C0010029A619A6902F010020092009A9A692E
:10335C0042F020029A619A6902F020020192019ACD
:10336C009A6942F004029A619A6902F0040202928C
:10337C00029A9A6942F008029A619B6903F0080369
:10338C000393039B0B4D01224FF400512846FEF78B
:10339C001DFE4FF40053049301230593069402235E
:1033AC00079304A92846FEF719FD09B030BD00BFEC
:1033BC00001002400010014000B583B00E4B5A695A
:1033CC0042F001025A615B6903F001030193019B16
:1033DC00002211460E20FEF737FB0E20FEF766FB8F
:1033EC00002211460F20FEF72FFB0F20FEF75EFB8D
:1033FC0003B05DF804FB00BF0010024008B50D4897
:10340C000D4B40F8EC3C4FF4614340F8E83C002392
:10341C0040F8E43C40F8E03C40F8DC3C0C2240F83E
:10342C00D82C40F8D43C40F8D03CEC38FFF7EEF9FF
:10343C0008BD00BF281600200038014008B50A4816
:10344C000A4B40F8083C4FF4E13340F8043C0023AD
:10345C000360436083600C22C260036143610838DF
:10346C00FFF7D4F908BD00BF20270020004400401E
:10347C0008B50948094B83634FF4E133C363002358
:10348C000364436483640C22C2640365436538306F
:10349C00FFF7BCF908BD00BF202700200048004002
:1034AC00F8B506460C4603790B7083881B0A4B70E3
:1034BC008068FCF74FFE07460023032B06D8991CA7
:1034CC00DA0027FA02F262540133F6E73A46B168A1
:1034DC00A01D02F043F90637F068FCF73BFE0546E9
:1034EC000023032B06D8F918DA0025FA02F26254ED
:1034FC000133F6E704372A46F168E01902F02EF999
:10350C003D443069FCF726FE07460023032B06D802
:10351C00E918DA0027FA02F262540133F6E70435AF
:10352C003A463169601902F019F93D4473696355E3
:10353C006A1CC3F30721A154AA1CC3F30741A1546D
:10354C00EA1C1B0EA354281DF8BD70B506460D468B
:10355C0003790B708068FCF7FDFD04460023032BF8
:10356C0006D85A1CDB0024FA03F3AB541346F6E7D7
:10357C002246B168681D02F0F1F8601D70BD2DE99E
:10358C00F84306460D4603790B7043794B708379EB
:10359C008B70C379CB700022042473689A4211D2C9
:1035AC00F36853F822302B55611CC3F30720685481
:1035BC00A11CC3F307406854E11C1B0E6B5404346C
:1035CC000132EAE7337C2B55631C727CEA54A31C52
:1035DC00B27CEA54E31CF27CEA54043400223369D2
:1035EC009A4211D2B36953F822302B55611CC3F3A4
:1035FC0007206854A11CC3F307406854E11C1B0E40
:10360C006B5404340132EAE7337F2B55631C727F11
:10361C00EA54A31CB27FEA54E31CF27FEA5404344C
:10362C004FF000080AE00434736A3A4653F8091064
:10363C00281902F093F83C4408F10108F369984505
:10364C0012D2736A4FEA880953F82800FCF782FDFE
:10365C00074620460023032BE5D8C118DA0027FAC9
:10366C0002F26A540133F6E72046BDE8F883F8B558
:10367C0006460D460C784B7844EA03248B7844EAD2
:10368C000344CB7844EA036443689C4219D87460C1
:10369C000022042473689A4219D22B5D611C695C68
:1036AC0043EA0123A11C695C43EA0143E11C695C08
:1036BC0043EA0163B3600434F16841F8223001320B
:1036CC00E8E7A100C06802F069F8F060DFE72F5D61
:1036DC00631CEB5C47EA0327A31CEB5C47EA03473C
:1036EC00E31CEB5C47EA0367043433699F4218D848
:1036FC003761002233699A4219D22B5D611C695CD7
:10370C0043EA0123A11C695C43EA0143E11C695CA7
:10371C0043EA016373610434B16941F82230013228
:10372C00E8E7B900B06902F039F8B061E0E72F5D65
:10373C00631CEB5C47EA0327A31CEB5C47EA0347DB
:10374C00E31CEB5C47EA03670434F3699F4203D83C
:10375C00F7614FF0000E1BE0B900706A02F01EF822
:10376C007062F5E704342346A018834204D2591E34
:10377C00EF5C6F540133F7E7431E0022EA54013C1F
:10378C002B1933620446726A42F82E300EF1010E88
:10379C00F3699E450BD2274600221346032BE1D832
:1037AC00E919C95CD80081400A430133F6E7204689
:1037BC00F8BD000030B585B0632904DD41F2F40397
:1037CC00C35C002B69D00D46044613681B6800F6D9
:1037DC001F0110469847FF2384F81838FE2384F8FD
:1037EC001938C3B284F81A38C0F3072284F81B289E
:1037FC001344DBB2DB4384F81C3884F81D5845F3C2
:10380C00072384F81E3805230022C11D8B4205DADC
:10381C00E11891F818180A440133F6E700F108058D
:10382C005342D2B2DBB258BF5A42D243214481F840
:10383C001828B5F5006F20DC04F6180160686B1EC3
:10384C00B3F5006F16D200F580531B78002BFAD01D
:10385C0000239D4203DDCA5CC2540133F9E700F535
:10386C00805300221A70AAB2014641F20803C058D4
:10387C00FFF76CF8284605B030BD094B01930323C4
:10388C008DF80830074B039323681B6801AA0721A6
:10389C00204698474FF0FF35ECE70025EAE700BFDC
:1038AC001C600008B061000830B4026943690A70FA
:1038BC00C2F307254D70C2F307458D70120ECA7006
:1038CC000B71C3F307224A71C3F307428A711B0EB3
:1038DC00CB718269C3690A72C2F307254D72C2F3B8
:1038EC0007458D72120ECA720B73C3F307224A730B
:1038FC00C3F307428A731B0ECB73026A436A0A74C2
:10390C00C2F307244C74C2F307448C74120ECA74AD
:10391C000B75C3F307224A75C3F307428A751B0E56
:10392C00CB7501F11803046B426B0C76C4F30721C1
:10393C005970C4F307419970240EDC701A71C2F3EC
:10394C0007215971C2F307419971120EDA71816B1B
:10395C00C26B1972C1F307245C72C1F307449C72E9
:10396C00090ED9721A73C2F307215973C2F30741B6
:10397C009973120EDA73016C426C1974C1F307203F
:10398C005874C1F307409874090ED9741A75C2F3B0
:10399C0007215975C2F307419975120EDA7530205B
:1039AC0030BC70472DE9F84F0C7800254E78002379
:1039BC00320214431D438E780023320414431D43FA
:1039CC00CE78330A320614431D4300220B7914437C
:1039DC001D4391F805804FEA082744EA020845EA9E
:1039EC0007098E79350448EA020849EA0509CE79B7
:1039FC00350642EA080445EA0905C0E9084591F88C
:103A0C0008804FF000094E7A0025340248EA040879
:103A1C0049EA05098E7A0025340448EA040849EA83
:103A2C000509CE7A350A340648EA040849EA05093C
:103A3C000F7B48EA020849EA07094E7B350248EA3F
:103A4C00020849EA05098E7B350448EA020849EA6E
:103A5C000509CE7B350642EA080445EA0905C0E9AA
:103A6C000A4591F810804FF000094E7C0025340275
:103A7C0048EA040849EA05098E7C0025340448EA22
:103A8C00040849EA0509CE7C350A340648EA0408DC
:103A9C0049EA05090F7D48EA020849EA07094E7D03
:103AAC00350248EA020849EA05098E7D350448EAE0
:103ABC00020849EA0509CE7D350642EA080445EAC2
:103ACC000905C0E90C4501F118030E7E002793F897
:103ADC00018000254FEA082446EA040847EA050954
:103AEC009E780025340448EA040849EA0509DE7882
:103AFC00350A340648EA040849EA050993F804B083
:103B0C0048EA020849EA0B095E79350248EA0208DC
:103B1C0049EA05099E79350448EA020849EA05098B
:103B2C00DE79350642EA080445EA0905C0E9104584
:103B3C0093F808804FF000095E7A0025340248EAB9
:103B4C00040849EA05099E7A0025340448EA040869
:103B5C0049EA0509DE7A350A340648EA040849EAD6
:103B6C0005091F7B48EA020849EA07095E7B350212
:103B7C0048EA020849EA05099E7B350448EA02082E
:103B8C0049EA0509DE7B350642EA080445EA0905DF
:103B9C00C0E9124593F810804FF000095E7C0025B7
:103BAC00340248EA040849EA05099E7C00253404DD
:103BBC0048EA040849EA0509DE7C350A340648EA75
:103BCC00040849EA05091F7D48EA020849EA070981
:103BDC005E7D350248EA020849EA05099E7D3504F6
:103BEC0042EA080445EA0905DE7D4FEA06691443FA
:103BFC0045EA0905C0E91445836D10309847BDE8C6
:103C0C00F88F2DE9F04300F1080E0C7800254E7862
:103C1C000023320214431D438E78002332041443D4
:103C2C001D43CE78330A320614431D4300220B7910
:103C3C0014431D4391F805804FEA082744EA020813
:103C4C0045EA07098E79350448EA020849EA05096C
:103C5C00CE79350642EA080445EA0905C0E904456F
:103C6C0091F808804FF000094E7A0025340248EA9A
:103C7C00040849EA05098E7A0025340448EA040848
:103C8C0049EA0509CE7A350A340648EA040849EAB5
:103C9C0005090F7B48EA020849EA07094E7B350201
:103CAC0048EA020849EA05098E7B350448EA02080D
:103CBC0049EA0509CE7B350642EA080445EA0905BE
:103CCC00C0E9064591F810804FF000094E7C0025A4
:103CDC00340248EA040849EA05098E7C00253404BC
:103CEC0048EA040849EA0509CE7C350A340648EA54
:103CFC00040849EA05090F7D48EA020849EA070960
:103D0C004E7D350248EA020849EA05098E7D3504E4
:103D1C0048EA020849EA0509CE7D350642EA08045C
:103D2C0045EA0905C0E9084501F118030E7E002794
:103D3C0093F8018000254FEA082434433D4393F85F
:103D4C00028000274FEA084634433D4393F8038032
:103D5C004FEA18274FEA086634433D431F79144352
:103D6C003D4393F805804FEA082714433D4393F8ED
:103D7C0006804FEA084714433D4393F807804FEA07
:103D8C00086714433D43C0E90C451E7A002793F89D
:103D9C00098000254FEA082426432F4393F80A8014
:103DAC0000254FEA084426432F4393F80B804FEA33
:103DBC0018254FEA086426432F431D7B16432F43D7
:103DCC0093F80D804FEA0825144634433D4393F88D
:103DDC000E804FEA084714433D4393F80F804FEA97
:103DEC00086714433D43C0E90E451E7C002793F839
:103DFC00118000254FEA082426432F4393F81280A4
:103E0C0000254FEA084426432F4393F813804FEACA
:103E1C0018254FEA086426432F431D7D16432F4374
:103E2C0093F815804FEA082516432F4393F8168014
:103E3C004FEA0845144634433D4393F817804FEA44
:103E4C00086714433D43C0E910453020BDE8F083BA
:103E5C002DE9F04387B00446FDF7DEFD054641F23F
:103E6C00FC03E358C31A42F6F822934203D900220A
:103E7C0041F2F403E25404F587531B6883B304F551
:103E8C0088531B68AB422BD204F5875300221A606F
:103E9C0026E0FDF7C1FD401B6369984223D96FF002
:103EAC000100A8E24FF0FF3035E041F2EC02A358DC
:103EBC00591CA1502344187641F2E402A358013B4B
:103ECC00A3506BB904F5875308221A6008E004F577
:103EDC0087520133136005F1140304F58852136003
:103EEC006369002BD5D1616841F20803CB585B6B39
:103EFC001B685B685B42C3F30A0341F202028A5AF5
:103F0C009342CFD0531C0A4492F80008C3F30A031F
:103F1C0041F202028B520028C0F24B8241F2F003B4
:103F2C00E2580244E25004F587531B68072BBCD0BF
:103F3C007BB9FF28CBD0FDF76FFD401B41F28833D6
:103F4C009842CDD9002241F2F403E2546FF0010003
:103F5C0051E2012B38D0022B54D0032B61D0042B0F
:103F6C006AD0052B79D0062B00F08280082BB7D1B4
:103F7C0004F58753002119608B1AD2B2DBB258BFFB
:103F8C005A42FF2AACD141F2E803E658002E00F069
:103F9C0084800A2E00F0FA80062E00F037810B2E5A
:103FAC0000F0028206F2BA3304EB8303586800284F
:103FBC0096D006F2BA3304EB83035B681B681B686C
:103FCC0004F1180198478BE7FE2816D004F58753A7
:103FDC0000221A6041F2F403E35C002B80D1A84B61
:103FEC0000930192029223681B686A460A212046BC
:103FFC009847FDF711FDA06072E704F58752013375
:10400C0013606DE741F2E402A050002141F2EC0292
:10401C00A15004F587520133136041F2F003E050D4
:10402C005EE741F2E401625802EB0020605004F5B7
:10403C0087520133136053E75142D2B2C9B258BF11
:10404C004A42FF2A04D004F5875300221A6047E73E
:10405C0004F587520133136042E741F2E802A050A5
:10406C0004F587520133136041F2F003E05037E757
:10407C0041F2E802A35803EB0020A05004F587534B
:10408C0007221A6041F2E403E358002B7FF428AFB7
:10409C0004F5875308221A6022E7794B00930F46E8
:1040AC000191029123681B686A460A2120469847B1
:1040BC00FDF7B2FCA060734B0093ADF80470724B2B
:1040CC000293039304930597374600E00137182FAA
:1040DC0025DC07F2064354F82330002BF6D09A68FF
:1040EC00ADF804201A680292586803689B689847D8
:1040FC00039007F2064854F8283058680368DB68C8
:10410C00984704904FF40063059323681B6854F898
:10411C0028106A46096920469847D7E70136182EB9
:10412C0027DC06F21E4304EB830358680028F5D005
:10413C004368ADF804308368029303689B68984722
:10414C00039006F21E4704EB870778680368DB6868
:10415C00984704904FF4006305932368D3F80080CC
:10416C00786803685B6898476A4601462046C047F2
:10417C00D4E7012241F2F403E25441F2F803E55092
:10418C0041F2FC03E5504FF0FF3034E104F1180626
:10419C00FDF742FCA368C01A227E3346717842EACE
:1041AC000122B17842EA0142F17842EA01613279A6
:1041BC00767942EA06229E7942EA0642DB7942EAA5
:1041CC000362324EA6FB00739B09194401914FF414
:1041DC007A7808FB13032E4F07FB03230293FDF79A
:1041EC001BFCA6FB00239B09019AD21A013AE26040
:1041FC0008FB1303029A07FB1323264A1A44226175
:10420C00FDF70AFC41F2FC03E05069E604F588581E
:10421C0008F1080804F11807267E7B7846EA032685
:10422C00BB7846EA0346FB7846EA0366D8F80430C6
:10423C009E421DD8C8F8046000220426D8F8043029
:10424C00934229D9BB5D711C795C43EA0123B11CF3
:10425C00795C43EA0143F11C795C43EA0163C8F8D9
:10426C0008300436D8F80C1041F822300132E5E75A
:10427C00B100D8F80C0001F091FAC8F80C00D9E79D
:10428C00EC5F000804600008E8610008D34D621080
:10429C0040420F0000CA9A3B17F80690731CFB5C57
:1042AC0049EA0329B31CFB5C49EA0349F31CFB5C98
:1042BC0049EA03690436D8F8103099451CD8C8F877
:1042CC0010900022D8F8103093421ED9BB5D711C9F
:1042DC00795C43EA0123B11C795C43EA0143F11C8C
:1042EC00795C43EA0163C8F814300436D8F8181026
:1042FC0041F822300132E5E74FEA8901D8F818007D
:10430C0001F04CFAC8F81800D9E717F80690731C9E
:10431C00FB5C49EA0329B31CFB5C49EA0349F31C27
:10432C00FB5C49EA03690436D8F81C30994504D87B
:10433C00C8F81C904FF0000E29E04FEA8901D8F81C
:10434C00240001F02BFAC8F82400F1E707EB0C026B
:10435C00D25CD800824011430133032BF6D90436CA
:10436C0033468A199A4204D95A1EF85CB854013360
:10437C00F7E7531E0021F954013EBB19C8F8203051
:10438C001646D8F8242042F82E300EF1010ED8F83B
:10439C001C30734503D9B44600210B46DDE70122DE
:1043AC0041F20413E2549BE5002241F2F403E2547F
:1043BC0096E541F2F403E35CE3B141F2F803E35810
:1043CC00EB1A40F6C412934201D8002013E00B4BB9
:1043DC00009300260196029623681B686A460A2100
:1043EC0020469847FDF718FBA06041F2F803E55012
:1043FC00304600E0002007B0BDE8F083EC5F000819
:10440C00026841F208030549CB581B689A4200D058
:10441C007047012201F580531A70F9E7300500202E
:10442C0008B5074B4FF40062991841F20800185870
:10443C00FEF7D2FA4FF400510248FDF7CDFD08BD4E
:10444C00300500200010014030B591B02822002129
:10445C0006A801F08EF900240194029403940494AC
:10446C000594012206924FF4803307930A92022599
:10447C000D950E934FF4E0130F9306A8FDF7CAFDAC
:10448C000F230193029503944FF4806304930594D6
:10449C00294601A8FDF7FCFF11B030BD2DE9F04312
:1044AC0087B0FDF79BFAFFF7CFFFFEF73FFFFEF754
:1044BC0083FFFEF7A3FFFEF7C1FFFEF7D9FFB74A54
:1044CC00D36843F02003D36002F58062D36843F0D5
:1044DC002003D360B24D55F8A83C03F5805201215E
:1044EC001170002441F202029C524FF400629918A0
:1044FC0041F208001858FEF76FFA41F23403EC5001
:10450C0041F23803EC5005F582531C6041F23C0338
:10451C00EC50182C12DC04F21E42A14B03EB82036C
:10452C0053F8A83C73B99E4B03EB82039D4AA2F14E
:10453C00700143F8A81C643442F86C4CFDF76CFA1B
:10454C00054656E30134E4E7FDF766FA401B1428F0
:10455C0040F25C83FDF760FA054657E3FDF75CFA21
:10456C00001B8F4B53F8983C984226D904E34FF02C
:10457C00FF303CE08A4A02F582510B685E1C0E60EB
:10458C00134403F8940C41F238015358013B535037
:10459C0073B9082141F23403D15009E0804A013348
:1045AC0041F23401535004F1140341F254015350BD
:1045BC007B4B53F8983C002BD0D1794B53F8A81C6B
:1045CC0041F20803CB585B6B1B685B685B42C3F31F
:1045DC000A0341F202028A5A9342C8D0531C0A447D
:1045EC0092F80008C3F30A0341F202028B5200282E
:1045FC00C0F2B5826A4B41F244015A5802445A50F7
:10460C0041F234015B58072BB4D073B9FF28C5D0E5
:10461C00FDF702FA001B41F288339842C8D90021F9
:10462C0041F248035E4AD154A6E2012B3FD0022B43
:10463C0061D0032B6FD0042B79D0052B00F08A802E
:10464C00062B00F09380082BB2D1002041F23403EA
:10465C005349C850831AD2B2DBB258BF5A42FF2A10
:10466C00A6D141F23C03CE58002E00F09F800A2EBA
:10467C0000F02681062E00F06D810B2E00F0698271
:10468C00A6F1640206F2BA36454B03EB860353F8E7
:10469C00A80C00288CD0424902F21E4301EB830384
:1046AC0053F8A83C1B681B689439984780E7FE2890
:1046BC001BD03B4B002141F23402995041F248028D
:1046CC009B5C002B7FF474AF374B009301910291EC
:1046DC00334E304650F8AC3D1B686A460A21984769
:1046EC00FDF79AF946F8A40C62E7013341F2340263
:1046FC002B498B505CE72A4A41F23801505002F5A5
:10470C00825100260E60013341F23401535041F2C4
:10471C004403D0504CE7224A41F23806915901EB40
:10472C0000209051013341F23401535040E7514283
:10473C00D2B2C9B258BF4A42FF2A05D0002141F279
:10474C003403174AD15033E7013341F23402144990
:10475C008B502DE7124A41F23C015050013341F28B
:10476C003401535041F24403D05021E70C4B41F239
:10477C003C015A5802EB00205850072141F23402F8
:10478C00995041F238029B58002B7FF411AF08214D
:10479C0041F23403024AD1500AE700BF0044004002
:1047AC002816002020270020EC5F0008C14B009346
:1047BC008046019002900F46084650F8AC3D1B68AD
:1047CC006A460A219847FDF727F947F8A40CBA4B1B
:1047DC000093ADF80480B94B029303930493CDF886
:1047EC001480374600E00137182F2DDC07F2064203
:1047FC00B34B03EB820353F8AC3C002BF3D09A6819
:10480C00ADF804201A680292586803689B689847B0
:10481C000390DFF8AC8207F2064908EB890959F8D6
:10482C00AC3C58680368DB68984704904FF400630D
:10483C000593404650F8AC3D1B6859F8AC1C6A46D1
:10484C0009699847CFE70136182E2DDC06F21E4277
:10485C009B4B03EB820353F8A80C0028F3D043685E
:10486C00ADF804308368029303689B689847039003
:10487C00934F06F21E4807EB880858F8A80C0368FB
:10488C00DB68984704904FF40063059357F8AC3DF0
:10489C00D3F8009058F8A80C03685B6898476A46F0
:1048AC0001463846C847CEE7854B012141F2480204
:1048BC00995441F24C029C5041F250029C505BE1E5
:1048CC00FDF7AAF87E4E56F8A43CC01A16F8943C94
:1048DC0016F8932C43EA022316F8922C43EA02436F
:1048EC0016F8911C43EA016116F8903C16F88F2CCF
:1048FC0043EA022316F88E2C43EA024316F88D2C59
:10490C0043EA02626F4FA7FB00E39B091944019134
:10491C004FF47A7909FB1303DFF8B48108FB032306
:10492C000293FDF779F8A7FB00239B09019AD21A91
:10493C00013A46F8A02C09FB1303029A08FB132337
:10494C00614A1A4446F89C2CFDF766F841F2500374
:10495C00F0502DE65A4B13F8946C13F8932C46EA4E
:10496C00022613F8922C46EA024613F8912C46EADA
:10497C00026603F583531B689E4222D8534B1E607C
:10498C0000210426514B1B688B4226D94C48A0F1C0
:10499C009402935D771CD75D43EA0723B71CD75D60
:1049AC0043EA0743F71CD25D43EA026341F2640217
:1049BC008350043641F26802825842F821300131AA
:1049CC00E0E7DFF8FC8041F26807B10058F8070017
:1049DC0000F0E4FE48F80700D0E7394AA2F194034E
:1049EC009F5D711C595C47EA0127B11C595C47EA71
:1049FC000147F11C5B5C47EA0367043641F26C0328
:104A0C00D3589F4224D841F26C032D4AD750002131
:104A1C0041F26C032A4AD3588B4224D91046943A5B
:104A2C00935D771CD75D43EA0723B71CD75D43EA38
:104A3C000743F71CD25D43EA026341F270028350D4
:104A4C00043641F27402825842F821300131DFE71A
:104A5C00914641F27408B90052F8080000F09EFE2D
:104A6C0049F80800CFE7164AA2F194039F5D711C28
:104A7C00595C47EA0127B11C595C47EA0147F11C14
:104A8C005B5C47EA0367043641F27803D3589F42D4
:104A9C0005D841F278030A4AD750002749E002F5BD
:104AAC008458B900D8F8000000F078FEC8F800006F
:104ABC00EFE700BFEC5F000804600008E861000845
:104ACC0028160020D34D621000CA9A3B882600207D
:104ADC0040420F00694B7344134413F8943CD000CC
:104AEC00834019430132032AF4D906F1040E7346AC
:104AFC0001EB0E029A4209D9604AA2F19406581EA3
:104B0C001A4412F8942C32540133F1E75B49A1F1A9
:104B1C009403501E00261E540EF1FF36334441F20E
:104B2C007C000B50164601F584510A6842F8273078
:104B3C00013741F27803514AD358BB4203D9B646E8
:104B4C0000210A46CFE7012141F258034B4AD154C8
:104B5C002EE5002141F24803484AD15428E541F2A0
:104B6C004803464AD35C3BB141F24C03D358E31A99
:104B7C0040F6C41293426CD80021414B53F8100CF0
:104B8C00FBF74EFF30B100213D4B53F80C0CFBF7FB
:104B9C0047FF70BB3A4C0023A3674FF0760884F8AC
:104BAC007C8054F8103CC4F87D3004F1840604F188
:104BBC007C07324605213846FEF7C6F840F6FF73EF
:104BCC0007223146A4F10800FDF74FFE84F87C80E3
:104BDC0054F80C3CC4F87D30324605213846FEF7BB
:104BEC00B3F840F6FF730722314604F13800FDF7A5
:104BFC003CFE01224FF400512248FDF7E7F941F247
:104C0C0048031E4AD35C002B7FF49EACFCF704FFD8
:104C1C00044641F25003194AD358C31A42F6F822FB
:104C2C00934204D9002141F24803144AD15441F271
:104C3C003403124AD358002B3FF4BAAC41F254035C
:104C4C00D3589C427FF6B4AC002141F23403D150CE
:104C5C00AEE40D4B0093002301930293074E3046B4
:104C6C0050F8AC3D1B686A460A219847FCF7D4FE05
:104C7C0046F8A40C41F24C03F4507DE728160020B2
:104C8C002027002000100140EC5F0008704708B599
:104C9C004FF6FF710120FEF733FA08BD82B00E4BC0
:104CAC009A6942F001029A619A6902F0010200923B
:104CBC00009ADA6942F08052DA61DB6903F08053C2
:104CCC000193019B054A536823F0E06343F00073A2
:104CDC00536002B0704700BF00100240000001405A
:104CEC0070B58AB000230693079308930993036861
:104CFC00674A934208D0674A934266D0664A934209
:104D0C0000F093800AB070BD0446644B9A6942F47B
:104D1C0080429A619A6902F480420092009A9A69E0
:104D2C0042F004029A619B6903F004030193019B16
:104D3C004FF4007306930223079303230993584EF1
:104D4C0006A93046FDF74AF84FF480630693002518
:104D5C000795089506A93046FDF740F85148524B87
:104D6C000360456085608023C36005614561856192
:104D7C004FF40053C361FCF7D3FE00BB494B636394
:104D8C005C624A484A4B03601023436000238360F3
:104D9C008022C2600361436183614FF40053C3619D
:104DAC00FCF7BEFE70B9414B23635C6200221146D6
:104DBC002520FCF749FE2520FCF778FEA2E7FFF73B
:104DCC0065FFDBE7FFF762FFEDE7344BDA6942F48E
:104DDC000032DA61DA6902F400320292029A9A69BC
:104DEC0042F004029A619B6903F004030393039B52
:104DFC00042306930223079303230993284D06A942
:104E0C002846FCF7EBFF082306930024079408942C
:104E1C0006A92846FCF7E2FF224621462620FCF78D
:104E2C0013FE2620FCF742FE6CE71C4BDA6942F4B9
:104E3C008022DA61DA6902F480220492049A9A6977
:104E4C0042F008029A619B6903F008030593059BE5
:104E5C004FF4806306930223079303230993154DA4
:104E6C0006A92846FCF7BAFF4FF40063069300240A
:104E7C000794089406A92846FCF7B0FF2246214661
:104E8C002720FCF7E1FD2720FCF710FE3AE700BFD6
:104E9C00003801400044004000480040001002402F
:104EAC00000801400828002058000240C4270020B8
:104EBC0044000240000C01407047FEE7FEE7FEE7AD
:104ECC00FEE770477047704708B5FCF799FD08BDC1
:104EDC0008B50248FCF7E0FE08BD00BFC42700205F
:104EEC0008B50248FCF7D8FE08BD00BF0828002012
:104EFC0008B50248FDF790FE08BD00BF3C15002028
:104F0C0008B50C4B1B6813F0200F0AD00A4B1A780B
:104F1C00084B5B68DBB209498B5433B10132064B49
:104F2C001A700748FDF778FE08BD0022024B1A7074
:104F3C0008BD00BF004400404C280020BC270020C6
:104F4C001827002008B50C4B1B6813F0200F0AD053
:104F5C000A4B1A78084B5B68DBB209498B5433B1A6
:104F6C000132064B1A700748FDF756FE08BD0022A9
:104F7C00024B1A7008BD00BF004800404D280020AD
:104F8C00B4270020582700200120704708B500F0F6
:104F9C00A7F9162303604FF0FF3008BD08B54FF09A
:104FAC00FF31FFF7F3FFFEE708B503460B4A126823
:104FBC0042B10A4A106803446A46934206D8074A2B
:104FCC00136008BD0649054A1160F2E700F088F944
:104FDC000C2303604FF0FF3008BD00BF50280020A9
:104FEC009C2800200F4B1A6842F001021A60596885
:104FFC000D4A0A405A601A6822F0847222F48032F8
:10500C001A601A6822F480221A605A6822F4FE028E
:10501C005A604FF41F029A604FF00062034B9A6083
:10502C00704700BF001002400000FFF800ED00E0E8
:10503C00002103E00B4B5B58435004310A480B4BE7
:10504C0042189A42F6D30A4A02E0002342F8043B83
:10505C00084B9A42F9D3FFF7C5FF00F047F9FFF769
:10506C001DFA7047C86400080000002010050020DD
:10507C00100500209C280020FEE7000010B5044617
:10508C00024B036000F0B6F8204610BD7C620008AD
:10509C0010B50446044B036000F0ACF820460C211C
:1050AC0000F084F8204610BD7C62000870B582B018
:1050BC00069C0D469442064609D0B06829460668FF
:1050CC000694346AA44602B0BDE8704060471946A5
:1050DC000192009300F0ECF8009B019A0028ECD0B0
:1050EC00062002B070BD00BF2DE9F04F894681B09B
:1050FC0019461D46164607460A9CDDF82CB0DDF80D
:10510C0030A0DDF8348000F0D3F888B1B9F1000F8D
:10511C00C8F8004088F804601EDB4C44A2450CBF64
:10512C000624012488F80640002001B0BDE8F08F69
:10513C00544518D0B8682B460568CDF83480CDF8A6
:10514C0030A0CDF82CB00A94EC6932464946A446FE
:10515C0001B0BDE8F04F604719F1020FE4D1012313
:10516C0088F80630E0E75946384600F0A1F80028E8
:10517C00E0D0002088F8056001B0BDE8F08F00BFDA
:10518C002DE9F04107460C4615461E4600F04AF83C
:10519C0008B1BDE8F081B868334606682146B469A9
:1051AC002A46A446BDE8F041604700BF00F096B81F
:1051BC0070B500241026036884B015460296126858
:1051CC009E6900946B468DF804400394B0479DF89B
:1051DC00043003F00603062B09BF01202046009B78
:1051EC002B6004B070BD00BF009890420CBF06202D
:1051FC000120704710B50446024B036000F054F8D0
:10520C00204610BDD862000810B50446044B03605C
:10521C0000F04AF820460821FFF7C8FF204610BDD1
:10522C00D862000838B515461C4600F041F820B18C
:10523C00082206232560E260237138BD2DE9F04178
:10524C0017461C4606460D4600F032F808B9032CEA
:10525C0001D9BDE8F0812B683A4631462846BDE8B5
:10526C00F0415B69184700BFF0B583B0089D0A99FF
:10527C0017468D4206460B9C0BD01946304600F063
:10528C0017F818B1012325602771A371002003B012
:10529C00F0BD0999019300F00BF818B1002067716B
:1052AC0003B0F0BD019BE8E7704700BF00207047DA
:1052BC00814211D008B5406803782A2B0AD049687E
:1052CC000B782A2B08BF0131FAF73AFFB0FA80F0BD
:1052DC00400908BD002008BD0120704700F02AB825
:1052EC00014B1868704700BF0C00002070B50025FA
:1052FC000C4E0D4CA41BA410A54209D100F062FD6C
:10530C0000250A4E0A4CA41BA410A54205D170BD61
:10531C0056F8253098470135EEE756F82530984772
:10532C000135F2E7BC640008BC640008BC640008EA
:10533C00C4640008024B0146186800F01FBC00BF93
:10534C000C0000202DE9F74F01F10B04162C8146BF
:10535C0007D934F0070405D50C23C9F80030002612
:10536C0031E110248C42F7D3484600F00BFAB4F527
:10537C00FC7F9B4D36D204F108022A445668A2F1F8
:10538C0008018E424FEAD40302D1D668B24210D043
:10539C007368F268B16823F00303CA603344916008
:1053AC005A6842F001025A60484600F0F1F908369A
:1053BC0009E102338B4A2E69114696426DD0706812
:1053CC0020F00300071B0F2F47DD331944F00104B5
:1053DC0074606B612B61DA609A6047F001025A606D
:1053EC003750E1E7630A2AD0042B12D8A3093833CB
:1053FC005A1C05EBC2025668A2F10800864206D080
:10540C00726822F00302111B0F291CDD013B0133D2
:10541C00D0E7142B01D85B33EAE7542B02D8230BCB
:10542C006E33E5E7B3F5AA7F02D8E30B7733DFE7FA
:10543C0040F25452934204D8A30C7C33D8E73F2358
:10544C00D6E77E23D4E70029F16804DBB368D96082
:10545C008B60B318A4E70E46D0E7002F6A612A616F
:10546C0005DB3044436843F0010343609CE7B0F52F
:10547C00007F44D20122C008871002FA07F76A683D
:10548C0001303A436A6055F8307005EBC002083AB7
:10549C00F260B76045F83060FE6001209A1000FAA7
:1054AC0002F26868824200F29F80024206D123F029
:1054BC0003035200024203F10403FAD005EBC30CC0
:1054CC00E0469E46D8F80C60464553D10EF1010ECD
:1054DC001EF0030F08F10808F4D1980779D16B6816
:1054EC0023EA02036B606868520082427CD8002A6F
:1054FC007AD073460242E1D104335200FAE7420AF1
:10550C00042A15D882093832571C55F8377005EB28
:10551C00C20EBE4526D10120921000FA02F2686834
:10552C0010436860C6F80CE0B760CEF80860B3E7CB
:10553C00142A01D85B32E7E7542A02D8020B6E32E8
:10554C00E2E7B2F5AA7F02D8C20B7732DCE740F271
:10555C005457BA429ABF820C7C327E22D4E7BF6881
:10556C00BE4504D07A6822F003029042F7D3D7F8F4
:10557C000CE0D7E77068F76820F00300A0EB040A92
:10558C00BAF10F0F10DDB268331944F001047460E6
:10559C00D760BA604AF001026B612B61D9609960E7
:1055AC005A6046F800A0FFE6BAF1000F0FDB30445A
:1055BC00436843F00103436056F8083F4846DF60F8
:1055CC00BB6000F0E5F8304603B0BDE8F08F3E4616
:1055DC007AE75CF80809013B84453FF47EAF82E72B
:1055EC000001002008010020D5F808B0DBF80460A9
:1055FC0026F00306B44203D8331B0F2B00F395801F
:10560C004F4A0BEB060317684E4A103711682744B4
:10561C00013105D04C4901390F44013149420F4049
:10562C00394648460192009300F042FAB0F1FF3F30
:10563C00804655D0009B019A834201D9AB454FD18E
:10564C00424843450168824607EB010EC0F800E072
:10565C003F4913D10B4211D1AB683E4446F00106D1
:10566C005E603C4ADAF8003011688B4288BF1360E8
:10567C00394A11688B4288BF136031E010680130E1
:10568C001BBFA8EB03037344C2F80080CAF80030B8
:10569C0018F007001CBFC0F1080080442A4B474497
:1056AC0018440F40C71B3946484600F001FA431C0A
:1056BC0004BF40460027DAF80030A0EB08003B445A
:1056CC00074447F00107AB45C5F80880CAF800301D
:1056DC00C8F80470C5D00F2E10D80123C8F80430B8
:1056EC00AB685A6822F003029442A2EB040301D87F
:1056FC000F2B1ADC484600F04BF830E60522DBF89D
:10570C0004300C3E26F0070603F001033343CBF8BC
:10571C0004300F2E0BEB06035A609A60A1D90BF1E3
:10572C000801484600F02AFA9BE7AE6844F00102F3
:10573C0043F0010334447260AC60636034E600BF34
:10574C0084280020080500200010000054280020A8
:10575C00FF0F00007C2800208028002010B5431E7D
:10576C000A44914200D110BD11F8014B03F8014FCE
:10577C00F7E703460244934200D1704703F8011B3C
:10578C00F9E70000014800F0B5BA00BF90280020EE
:10579C00014800F0B0BA00BF90280020024B0A4626
:1057AC000146186800F002B80C0000202DE9F74FF4
:1057BC0082460C4629B9114603B0BDE8F04FFFF7FD
:1057CC00C1BD0192FFF7DEFF019A54F8045C02F1AF
:1057DC000B08B8F1160FA4F1080925F003060AD935
:1057EC0038F0070809D50C230027CAF800303846D2
:1057FC0003B0BDE8F08F4FF010089045F3D3B045DF
:10580C0040F34881A94B09EB0601D3F808E09B460D
:10581C0071454B6805D023F0010008444068C70768
:10582C0047D423F00303714506EB030719D108F1A4
:10583C00100087423FDBA7EB080709EB080347F092
:10584C000107CBF808305F6054F8043C504603F075
:10585C00010343EA080344F8043CFFF799FF274689
:10586C00C5E7B84527DCCB688A68D3609A60A7EB9C
:10587C0008000F28D9F8043009EB070240F20C811C
:10588C0003F0010309EB080143EA080340F00100AF
:10589C00C9F8043048605368083143F00103536081
:1058AC00504600F06BF95046FFF772FF09F10807FC
:1058BC009DE700231946E80700F1858054F8085C41
:1058CC00A9EB0505686820F003003044002977D067
:1058DC00714551D1034408F110018B4270DB2F4606
:1058EC00EA6857F8081FCA609160321F242A3CD816
:1058FC00132A37D921681B2AA9606168E9601CD872
:10590C0005F1100204F10801086810604868506045
:10591C0089689160A3EB080305EB080243F00103CF
:10592C00CBF8082053606B6803F0010343EA0803CB
:10593C006B605046FFF72CFF59E7A168242A2961B8
:10594C00E16818BF05F11802696109BF226904F109
:10595C001001AA61606902BF05F1200204F118016F
:10596C00E861D1E73A462146CEE721463846019315
:10597C0000F0C2F9019BCDE7C718B84520DCCB6815
:10598C008A68D3609A602846EB6850F8082FD36079
:10599C009A60321F242A43D8132A3FD923681B2A22
:1059AC00AB606368EB6024D805F1100004F10803C8
:1059BC001A6802605A6842609B688360A94656E781
:1059CC0080450746DFDD11465046FFF7BBFC074616
:1059DC000028AED054F8043CA0F1080223F00103D7
:1059EC004B449A4220D150F8047C27F003073744EB
:1059FC003DE7A368242A2B61E36818BF05F1180062
:105A0C006B6109BF236904F11003AB61626902BFCA
:105A1C0005F1200004F11803EA61C9E72346C7E742
:105A2C00214600F069F9C9E7321F242A2ED8132A1F
:105A3C0029D923681B2A0360636843600ED800F1E0
:105A4C00080304F1080211681960516859609268E2
:105A5C009A602146504600F091F86AE7A368242A20
:105A6C008360E36818BF04F11002C36009BF2369A7
:105A7C0000F110030361616902BF00F1180304F126
:105A8C0018024161DFE703462246DCE7214600F0BD
:105A9C0033F9DEE73746EAE603F001031F43C9F8A2
:105AAC000470536843F001035360FCE600010020CE
:105ABC0038B50023054C054608462360FFF774FAF9
:105ACC00431C02D1236803B12B6038BD98280020F9
